:020000040800F2
:1000000000C0002015940008C9900008D590000891
:10001000DB900008E1900008E79000080000000075
:10002000000000000000000000000000ED9000084B
:10003000F9900008000000000591000811910008E7
:100040005D9400085D9400085D9400085D940008CC
:100050005D9400085D9400081D9100085D940008FF
:100060005D9400085D9400085D9400085D940008AC
:100070005D9400085D9400085D9400085D9400089C
:100080005D9400085D9400085D9400085D9400088C
:100090005D9400085D9400085D9400082B910008B1
:1000A0005D9400085D9400085D9400085D9400086C
:1000B0005D940008399100085D9400085D94000883
:1000C0005D9400085D9400085D9400085D9400084C
:1000D0005D9400084D9100085D9400085D9400084F
:1000E000619100085D9400085D9400085D9400082B
:1000F0005D9400085D9400085D9400085D9400081C
:100100005D9400085D9400085D9400085D9400080B
:100110005D9400085D9400085D9400085D940008FB
:100120005D9400085D9400085D9400085D940008EB
:1001300000000000000000000000000000000000BF
:1001400000000000000000000000000000000000AF
:10015000000000000000000000000000000000009F
:10016000000000000000000000000000000000008F
:10017000000000000000000000000000000000007F
:10018000000000000000000000000000000000006F
:10019000000000000000000000000000000000005F
:1001A000000000000000000000000000000000004F
:1001B000000000000000000000000000000000003F
:1001C000000000000000000000000000000000002F
:1001D000000000000000000000000000000000001F
:0401E0005FF8E0F1F3
:1001E80010B5054C237833B9044B13B10448AFF369
:1001F80000800123237010BD74000020000000005F
:10020800ECB0000808B5034B1BB103490348AFF332
:10021800008008BD0000000078000020ECB0000855
:1002280081F0004102E000BF83F0004330B54FEA9F
:1002380041044FEA430594EA050F08BF90EA020F0C
:100248001FBF54EA000C55EA020C7FEA645C7FEA9F
:10025800655C00F0E2804FEA5454D4EB5555B8BFC2
:100268006D420CDD2C4480EA020281EA030382EA33
:10027800000083EA010180EA020281EA0303362DC5
:1002880088BF30BD11F0004F4FEA01314FF4801C98
:100298004CEA113102D0404261EB410113F0004FAA
:1002A8004FEA03334CEA133302D0524263EB430361
:1002B80094EA050F00F0A780A4F10104D5F1200EFF
:1002C8000DDB02FA0EFC22FA05F2801841F100015A
:1002D80003FA0EF2801843FA05F359410EE0A5F12E
:1002E80020050EF1200E012A03FA0EFC28BF4CF05F
:1002F800020C43FA05F3C01851EBE37101F0004515
:1003080007D54FF0000EDCF1000C7EEB00006EEB21
:100318000101B1F5801F1BD3B1F5001F0CD34908AB
:100328005FEA30004FEA3C0C04F101044FEA445202
:1003380012F5800F80F09A80BCF1004F08BF5FEA89
:10034800500C50F1000041EB045141EA050130BD69
:100358005FEA4C0C404141EB0101013C28BFB1F57B
:10036800801FE9D291F0000F04BF01460020B1FAC6
:1003780081F308BF2033A3F10B03B3F120020CDA99
:100388000C3208DD02F1140CC2F10C0201FA0CF077
:1003980021FA02F10CE002F11402D8BFC2F1200CDC
:1003A80001FA02F120FA0CFCDCBF41EA0C01904092
:1003B800E41AA2BF01EB0451294330BD6FEA0404DB
:1003C8001F3C1CDA0C340EDC04F11404C4F12002C6
:1003D80020FA04F001FA02F340EA030021FA04F3D8
:1003E80045EA030130BDC4F10C04C4F1200220FA2F
:1003F80002F001FA04F340EA0300294630BD21FA6D
:1004080004F0294630BD94F0000F83F4801306BF32
:1004180081F480110134013D4EE77FEA645C18BF26
:100428007FEA655C29D094EA050F08BF90EA020FBD
:1004380005D054EA000C04BF1946104630BD91EAB5
:10044800030F1EBF0021002030BD5FEA545C05D1B8
:100458004000494128BF41F0004130BD14F58004F7
:100468003CBF01F5801130BD01F0004545F0FE416B
:1004780041F470014FF0000030BD7FEA645C1ABFA0
:10048800194610467FEA655C1CBF0B46024650EAD7
:10049800013406BF52EA033591EA030F41F4002103
:1004A80030BD00BF90F0000F04BF0021704730B589
:1004B8004FF4806404F132044FF000054FF000015E
:1004C80050E700BF90F0000F04BF0021704730B51F
:1004D8004FF4806404F1320410F0004548BF4042F4
:1004E8004FF000013EE700BF42004FEAE2014FEA49
:1004F80031014FEA02701FBF12F07F4393F07F4F24
:1005080081F06051704732F07F4208BF704793F026
:100518007F4F04BF41F40021704730B54FF4607439
:1005280001F0004521F000411CE700BF50EA01023C
:1005380008BF704730B54FF000050AE050EA0102E5
:1005480008BF704730B511F0004502D5404261EB55
:1005580041014FF4806404F132045FEA915C3FF496
:10056800D8AE4FF003025FEADC0C18BF03325FEA33
:10057800DC0C18BF033202EBDC02C2F1200300FAE4
:1005880003FC20FA02F001FA03FE40EA0E0021FA09
:1005980002F11444BDE600BF70B54FF0FF0C4CF4F7
:1005A800E06C1CEA11541DBF1CEA135594EA0C0FA9
:1005B80095EA0C0F00F0DEF82C4481EA030621EAE4
:1005C8004C5123EA4C5350EA013518BF52EA03351F
:1005D80041F4801143F4801338D0A0FB02CE4FF0D1
:1005E8000005E1FB02E506F00042E0FB03E54FF001
:1005F8000006E1FB03569CF0000F18BF4EF0010EF9
:10060800A4F1FF04B6F5007F64F5407404D25FEAF4
:100618004E0E6D4146EB060642EAC62141EA5551A7
:100628004FEAC52040EA5E504FEACE2EB4F1FD0CE9
:1006380088BFBCF5E06F1ED8BEF1004F08BF5FEA67
:10064800500E50F1000041EB045170BD06F0004619
:1006580046EA010140EA020081EA0301B4EB5C04C6
:10066800C2BFD4EB0C0541EA045170BD41F48011BE
:100678004FF0000E013C00F3AB8014F1360FDEBFE3
:10068800002001F0004170BDC4F10004203C35DABF
:100698000C341BDC04F11404C4F1200500FA05F342
:1006A80020FA04F001FA05F240EA020001F00042E3
:1006B80021F0004110EBD37021FA04F642EB060159
:1006C8005EEA430E08BF20EAD37070BDC4F10C0483
:1006D800C4F1200500FA04F320FA05F001FA04F247
:1006E80040EA020001F0004110EBD37041F1000133
:1006F8005EEA430E08BF20EAD37070BDC4F120053E
:1007080000FA05F24EEA020E20FA04F301FA05F2A5
:1007180043EA020321FA04F001F0004121FA04F24D
:1007280020EA020000EBD3705EEA430E08BF20EA1D
:10073800D37070BD94F0000F0FD101F00046400057
:1007480041EB010111F4801F08BF013CF7D041EAD9
:10075800060195F0000F18BF704703F000465200DD
:1007680043EB030313F4801F08BF013DF7D043EAAE
:100778000603704794EA0C0F0CEA135518BF95EA64
:100788000C0F0CD050EA410618BF52EA4306D1D1EB
:1007980081EA030101F000414FF0000070BD50EA0A
:1007A800410606BF1046194652EA430619D094EA94
:1007B8000C0F02D150EA013613D195EA0C0F05D17E
:1007C80052EA03361CBF104619460AD181EA0301D2
:1007D80001F0004141F0FE4141F470014FF000008A
:1007E80070BD41F0FE4141F4780170BD70B54FF025
:1007F800FF0C4CF4E06C1CEA11541DBF1CEA1355A5
:1008080094EA0C0F95EA0C0F00F0A7F8A4EB050486
:1008180081EA030E52EA03354FEA013100F088807D
:100828004FEA03334FF0805545EA131343EA126346
:100838004FEA022245EA111545EA10654FEA0026FB
:100848000EF000419D4208BF964244F1FD0404F5B4
:10085800407402D25B084FEA3202B61A65EB030510
:100868005B084FEA32024FF480104FF4002CB6EBCD
:10087800020E75EB030E22BFB61A754640EA0C004D
:100888005B084FEA3202B6EB020E75EB030E22BF8D
:10089800B61A754640EA5C005B084FEA3202B6EBCE
:1008A800020E75EB030E22BFB61A754640EA9C008D
:1008B8005B084FEA3202B6EB020E75EB030E22BF5D
:1008C800B61A754640EADC0055EA060E18D04FEA1B
:1008D800051545EA16754FEA06164FEAC30343EABB
:1008E80052734FEAC2025FEA1C1CC0D111F4801F88
:1008F8000BD141EA00014FF000004FF0004CB6E781
:1009080011F4801F04BF01430020B4F1FD0C88BF1F
:10091800BCF5E06F3FF6AFAEB5EB030C04BFB6EB2A
:10092800020C5FEA500C50F1000041EB045170BD1D
:100938000EF0004E4EEA113114EB5C04C2BFD4EB4A
:100948000C0541EA045170BD41F480114FF0000ECE
:10095800013C90E645EA060E8DE60CEA135594EA4A
:100968000C0F08BF95EA0C0F3FF43BAF94EA0C0F4D
:100978000AD150EA01347FF434AF95EA0C0F7FF4C2
:1009880025AF104619462CE795EA0C0F06D152EA16
:1009980003353FF4FDAE1046194622E750EA4106FA
:1009A80018BF52EA43067FF4C5AE50EA41047FF40B
:1009B8000DAF52EA43057FF4EBAE12E74FEA41026E
:1009C80012F5001215D211D56FF47873B3EB625299
:1009D80012D94FEAC12343F0004343EA505311F0C0
:1009E800004F23FA02F018BF404270474FF0000052
:1009F800704750EA013005D111F0004008BF6FF090
:100A0800004070474FF00000704700BF4A0011D205
:100A180012F5001211D20DD56FF47873B3EB625250
:100A28000ED44FEAC12343F0004343EA505323FA5C
:100A380002F070474FF00000704750EA013002D1D1
:100A48004FF0FF3070474FF000007047034613F82F
:100A5800012B002AFBD1181A013870474FF0FF3CD0
:100A680006E000BF4FF0010C02E000BF4FF0010CA0
:100A78004DF804CD4FEA410C7FEA6C5C4FEA430C19
:100A880018BF7FEA6C5C1BD001B050EA410C0CBF68
:100A980052EA430C91EA030F02BF90EA020F0020CA
:100AA800704710F1000F91EA030F58BF994208BF31
:100AB80090422CBFD8176FEAE37040F001007047EE
:100AC8004FEA410C7FEA6C5C02D150EA013C07D145
:100AD8004FEA430C7FEA6C5CD6D152EA033CD3D090
:100AE8005DF8040B704700BF8446104662468C468A
:100AF8001946634600E000BF01B5FFF7B7FF0028BD
:100B080048BF10F1000F01BD4DF808EDFFF7F4FFE5
:100B18000CBF012000205DF808FB00BF4DF808ED70
:100B2800FFF7EAFF34BF012000205DF808FB00BF93
:100B38004DF808EDFFF7E0FF94BF012000205DF8B5
:100B480008FB00BF4DF808EDFFF7CEFF94BF01206A
:100B580000205DF808FB00BF4DF808EDFFF7C4FF63
:100B680034BF012000205DF808FB00BF80B500AF4E
:100B7800084B1B68074A43F010031360032000F07A
:100B880047F9002000F008F808F068FA0023184632
:100B980080BD00BF0020024080B582B000AF786001
:100BA800124B1A68124B1B7819464FF47A73B3FB31
:100BB800F1F3B2FBF3F3184600F05FF90346002B9C
:100BC80001D001230EE07B680F2B0AD80022796838
:100BD8004FF0FF3000F027F9064A7B6813600023C6
:100BE80000E0012318460837BD4680BD0C000020F0
:100BF800040000200000002080B400AF054B1B78E3
:100C08001A46054B1B681344034A136000BFBD46D0
:100C180080BC7047040000209000002080B400AF22
:100C2800024B1B681846BD4680BC704790000020E8
:100C380080B584B000AF7860FFF7F0FFB8607B68DC
:100C4800FB60FB68B3F1FF3F05D00A4B1B781A46DF
:100C5800FB681344FB6000BFFFF7E0FF0246BB6878
:100C6800D31AFA689A42F7D800BF00BF1037BD46BA
:100C780080BD00BF0400002080B485B000AF78605C
:100C88007B6803F00703FB600C4BDB68BB60BA684A
:100C98004FF6FF031340BB60FB681A02BB6813439F
:100CA80043F0BF6343F40033BB60044ABB68D360BE
:100CB80000BF1437BD4680BC704700BF00ED00E0A0
:100CC80080B400AF044BDB681B0A03F00703184627
:100CD800BD4680BC704700BF00ED00E080B483B023
:100CE80000AF0346FB7197F90730002B0BDBFB794C
:100CF80003F01F02064997F907305B09012000FA43
:100D080002F241F8232000BF0C37BD4680BC704773
:100D180000E100E080B483B000AF03463960FB71A6
:100D280097F90730002B0ADB3B68DAB20C4997F9D0
:100D380007301201D2B20B4483F800230AE03B6863
:100D4800DAB20849FB7903F00F03043B1201D2B26F
:100D58000B441A7600BF0C37BD4680BC704700BFF5
:100D680000E100E000ED00E080B489B000AFF86079
:100D7800B9607A60FB6803F00703FB61FB69C3F1A4
:100D88000703042B28BF0423BB61FB690433062B2C
:100D980002D9FB69033B00E000237B614FF0FF327F
:100DA800BB6902FA03F3DA43BB681A407B699A40CD
:100DB8004FF0FF317B6901FA03F3D9437B680B409D
:100DC800134318462437BD4680BC704780B582B0AF
:100DD80000AF78607B68013BB3F1807F01D30123CA
:100DE8000FE00A4A7B68013B53600F214FF0FF3048
:100DF800FFF790FF054B00229A60044B07221A6008
:100E0800002318460837BD4680BD00BF10E000E04B
:100E180080B582B000AF78607868FFF72DFF00BF1B
:100E28000837BD4680BD80B586B000AF0346B960BF
:100E38007A60FB7300237B61FFF742FF78617A6871
:100E4800B9687869FFF790FF024697F90F301146A5
:100E58001846FFF75FFF00BF1837BD4680BD80B555
:100E680082B000AF0346FB7197F907301846FFF7C9
:100E780035FF00BF0837BD4680BD80B582B000AFE2
:100E880078607868FFF7A2FF034618460837BD4622
:100E980080BD000080B584B000AF78600023FB738C
:100EA8007B6893F82130022B05D07B6804229A6373
:100EB8000123FB73D6E07B681B681A687B681B6894
:100EC80022F00E021A607B681B681A687B681B6830
:100ED80022F001021A607B681B681A46644B9A422A
:100EE80058D97B681B68634A93424FD07B681B685C
:100EF800614A934248D07B681B68604A934240D05D
:100F08007B681B685E4A934238D07B681B685D4AE1
:100F1800934230D07B681B685B4A934228D07B6839
:100F28001B68534A934220D07B681B68574A9342F8
:100F380019D07B681B68564A934212D07B681B689D
:100F4800544A93420AD07B681B68534A934202D1A1
:100F58004FF480531BE04FF4803318E04FF4807354
:100F680015E0102313E0012311E04FF080730EE029
:100F78004FF480130BE04FF4803308E04FF48053B4
:100F880005E04FF4807302E0102300E00123434A98
:100F9800536057E07B681B68364A93424FD07B68A2
:100FA8001B68354A934248D07B681B68334A934292
:100FB80040D07B681B68324A934238D07B681B68F4
:100FC800304A934230D07B681B682F4A934228D01E
:100FD8007B681B68264A934220D07B681B682B4A93
:100FE800934219D07B681B68294A934212D07B68C8
:100FF8001B68284A93420AD07B681B68264A93429A
:1010080002D14FF480531BE04FF4803318E04FF4C3
:10101800807315E0102313E0012311E04FF0807373
:101028000EE04FF480130BE04FF4803308E04FF4E8
:10103800805305E04FF4807302E0102300E00123A1
:10104800174A53607B68012283F821207B680022BD
:1010580083F820207B685B6B002B03D07B685B6B7D
:1010680078689847FB7B18461037BD4680BD00BF9F
:1010780080000240080002401C000240300002408C
:1010880044000240580002406C000240080402403C
:101098001C040240300402404404024000040240A0
:1010A8000000024080B48BB000AF78603960002344
:1010B8007B6200233B6279E101227B6A02FA03F337
:1010C800FB613B681B68FA691340BB61BA69FB693D
:1010D8009A4240F068813B685B68A04A93425ED0C0
:1010E8009E4A934275D89E4A934258D09C4A93424E
:1010F8006FD89C4A934252D09A4A934269D89A4AE6
:1011080093424CD0984A934263D8984A934246D027
:10111800964A93425DD8122B2AD8122B59D801A28D
:1011280052F823F0A7110008811100089311000854
:10113800D5110008DB110008DB110008DB110008DD
:10114800DB110008DB110008DB110008DB110008C7
:10115800DB110008DB110008DB110008DB110008B7
:10116800DB110008DB110008891100089D11000837
:101178007F4A934213D02CE03B68DB683B6229E04E
:101188003B68DB6804333B6224E03B68DB68083378
:101198003B621FE03B68DB680C333B621AE03B684C
:1011A8009B68002B02D104233B6213E03B689B68D9
:1011B800012B05D108233B627B68FA691A6109E0B3
:1011C80008233B627B68FA695A6103E000233B62AB
:1011D80000E000BFBB69FF2B01D87B6801E07B689A
:1011E80004337B61BB69FF2B02D87B6A9B0002E05A
:1011F8007B6A083B9B003B617B691A680F213B694E
:1012080001FA03F3DB431A40396A3B6901FA03F335
:101218001A437B691A603B685B6803F08053002BB4
:1012280000F0C180534B9B69524A43F0010393611C
:10123800504B9B6903F00103BB60BB684E4A7B6A55
:101248009B08023352F82330FB607B6A03F00303E8
:101258009B000F2202FA03F3DB43FA681340FB609A
:101268007B68464A93421FD07B68454A934219D00F
:101278007B68444A934213D07B68434A93420DD01B
:101288007B68424A934207D07B68414A934201D126
:1012980005230AE0062308E0042306E0032304E00C
:1012A800022302E0012300E000237A6A02F003022D
:1012B80092009340FA681343FB602F497B6A9B08AE
:1012C8000233FA6841F823203B685B6803F48033F3
:1012D800002B06D02F4B1A682E49BB6913430B60AD
:1012E80006E02C4B1A68BB69DB432A4913400B60A4
:1012F8003B685B6803F40033002B06D0254B5A6823
:101308002449BB6913434B6006E0224B5A68BB690A
:10131800DB43204913404B603B685B6803F4801350
:10132800002B06D01B4B9A681A49BB6913438B6084
:1013380006E0184B9A68BB69DB43164913408B607B
:101348003B685B6803F40013002B25D0114BDA6867
:101358001049BB691343CB6025E000BF0000321081
:1013680000003110000022100000211000001210AF
:101378000000111000100240000001400008014068
:10138800000C014000100140001401400018014009
:10139800001C0140000401400B4BDA68BB69DB43C9
:1013A80009491340CB607B6A01337B623B681A684A
:1013B8007B6A22FA03F3002B7FF47EAE00BF00BFE6
:1013C8002C37BD4680BC70470004014080B485B00E
:1013D80000AF78600B467B807B689A687B881340F7
:1013E800002B02D00123FB7301E00023FB73FB7B7E
:1013F80018461437BD4680BC704780B483B000AF30
:1014080078600B467B8013467B707B78002B03D07B
:101418007A887B681A6103E07B881A047B681A6102
:1014280000BF0C37BD4680BC704780B483B000AFA6
:1014380078600B467B807B68DA687B881340002BDA
:1014480003D07A887B685A6102E07A887B681A61DF
:1014580000BF0C37BD4680BC7047000080B582B025
:1014680000AF0346FB80084B5A69FB881340002BEA
:1014780006D0054AFB885361FB88184607F044FDEF
:1014880000BF0837BD4680BD0004014080B586B066
:1014980000AF78607B68002B01D101236CE27B6888
:1014A8001B6803F00103002B00F08780924B5B68F8
:1014B80003F00C03042B0CD08F4B5B6803F00C0378
:1014C800082B12D18C4B5B6803F48033B3F5803F53
:1014D8000BD1894B1B6803F40033002B6CD07B685D
:1014E8005B68002B68D1012346E27B685B68B3F533
:1014F800803F06D1804B1B687F4A43F480331360DA
:101508002EE07B685B68002B0CD17B4B1B687A4A0A
:1015180023F480331360784B1B68774A23F48023C5
:1015280013601DE07B685B68B3F5A02F0CD1724B8C
:101538001B68714A43F4802313606F4B1B686E4A23
:1015480043F4803313600BE06B4B1B686A4A23F447
:1015580080331360684B1B68674A23F48023136049
:101568007B685B68002B13D0FFF758FB386108E0F5
:10157800FFF754FB02463B69D31A642B01D90323B6
:10158800FAE15D4B1B6803F40033002BF0D014E044
:10159800FFF744FB386108E0FFF740FB02463B6970
:1015A800D31A642B01D90323E6E1534B1B6803F4D8
:1015B8000033002BF0D100E000BF7B681B6803F00C
:1015C8000203002B63D04C4B5B6803F00C03002B29
:1015D8000BD0494B5B6803F00C03082B1CD1464B1E
:1015E8005B6803F48033002B16D1434B1B6803F070
:1015F8000203002B05D07B681B69012B01D0012356
:10160800BAE13D4B1B6823F0F8027B685B69DB009D
:10161800394913430B603AE07B681B69002B20D0E3
:10162800364B01221A60FFF7F9FA386108E0FFF734
:10163800F5FA02463B69D31A022B01D903239BE131
:101648002D4B1B6803F00203002BF0D02A4B1B68BC
:1016580023F0F8027B685B69DB00274913430B60C2
:1016680015E0264B00221A60FFF7D8FA386108E027
:10167800FFF7D4FA02463B69D31A022B01D9032398
:101688007AE11D4B1B6803F00203002BF0D17B6845
:101698001B6803F00803002B3AD07B689B69002B7A
:1016A80019D0174B01221A60FFF7B8FA386108E021
:1016B800FFF7B4FA02463B69D31A022B01D9032378
:1016C8005AE10D4B5B6A03F00203002BF0D00120B6
:1016D80000F0D8FA1CE00A4B00221A60FFF79EFAC5
:1016E80038610FE0FFF79AFA02463B69D31A022BDA
:1016F80008D9032340E100BF001002400000424225
:10170800800442429E4B5B6A03F00203002BE9D13E
:101718007B681B6803F00403002B00F0A6800023FD
:10172800FB75974BDB6903F08053002B0DD1944B6D
:10173800DB69934A43F08053D361914BDB6903F033
:101748008053BB60BB680123FB758E4B1B6803F499
:101758008073002B18D18B4B1B688A4A43F4807323
:101768001360FFF75BFA386108E0FFF757FA0246A3
:101778003B69D31A642B01D90323FDE0814B1B6815
:1017880003F48073002BF0D07B68DB68012B06D153
:101798007B4B1B6A7A4A43F0010313622DE07B6896
:1017A800DB68002B0CD1764B1B6A754A23F00103CA
:1017B8001362734B1B6A724A23F0040313621CE022
:1017C8007B68DB68052B0CD16D4B1B6A6C4A43F0B8
:1017D800040313626A4B1B6A694A43F001031362EC
:1017E8000BE0674B1B6A664A23F001031362644BE4
:1017F8001B6A634A23F0040313627B68DB68002BCF
:1018080015D0FFF70BFA38610AE0FFF707FA02462E
:101818003B69D31A41F28832934201D90323ABE0E2
:10182800574B1B6A03F00203002BEED014E0FFF7BE
:10183800F5F938610AE0FFF7F1F902463B69D31A76
:1018480041F28832934201D9032395E04C4B1B6A3D
:1018580003F00203002BEED1FB7D012B05D1484B91
:10186800DB69474A23F08053D3617B68DB69002B2F
:1018780000F08180424B5B6803F00C03082B61D0B9
:101888007B68DB69022B46D13F4B00221A60FFF7C9
:10189800C5F9386108E0FFF7C1F902463B69D31A78
:1018A800022B01D9032367E0354B1B6803F0007353
:1018B800002BF0D17B681B6AB3F5803F08D1304B11
:1018C8005B6823F400327B689B682D4913434B60A7
:1018D8002B4B5B6823F474127B68196A7B685B6A1C
:1018E8000B43274913434B60274B01221A60FFF72C
:1018F80095F9386108E0FFF791F902463B69D31A78
:10190800022B01D9032337E01D4B1B6803F000733A
:10191800002BF0D02FE01C4B00221A60FFF77EF955
:10192800386108E0FFF77AF902463B69D31A022BBF
:1019380001D9032320E0124B1B6803F00073002B2E
:10194800F0D118E07B68DB69012B01D1012313E09A
:101958000B4B5B68FB60FB6803F480327B681B6A97
:101968009A4206D1FB6803F470127B685B6A9A425C
:1019780001D0012300E0002318461837BD4680BD7A
:1019880000100240007000406000424280B584B000
:1019980000AF786039607B68002B01D10123D0E06B
:1019A8006A4B1B6803F007033A689A4210D9674BE1
:1019B8001B6823F0070265493B6813430B60634BC0
:1019C8001B6803F007033A689A4201D00123B8E084
:1019D8007B681B6803F00203002B20D07B681B6820
:1019E80003F00403002B05D0594B5B68584A43F4B5
:1019F800E06353607B681B6803F00803002B05D085
:101A0800534B5B68524A43F460535360504B5B68D6
:101A180023F0F0027B689B684D4913434B607B6859
:101A28001B6803F00103002B40D07B685B68012B27
:101A380007D1474B1B6803F40033002B15D1012352
:101A48007FE07B685B68022B07D1414B1B6803F082
:101A58000073002B09D1012373E03D4B1B6803F091
:101A68000203002B01D101236BE0394B5B6823F0A3
:101A780003027B685B68364913434B60FFF7CEF877
:101A8800F8600AE0FFF7CAF80246FB68D31A41F289
:101A98008832934201D9032353E02D4B5B6803F04E
:101AA8000C027B685B689B009A42EBD1274B1B6852
:101AB80003F007033A689A4210D2244B1B6823F0BC
:101AC800070222493B6813430B60204B1B6803F055
:101AD80007033A689A4201D0012332E07B681B6809
:101AE80003F00403002B08D0194B5B6823F4E06271
:101AF8007B68DB68164913434B607B681B6803F0FF
:101B08000803002B09D0124B5B6823F460527B68F2
:101B18001B69DB000E4913434B6000F021F80246B5
:101B28000B4B5B681B0903F00F030A49CB5C22FAD5
:101B380003F3094A1360094B1B681846FFF72CF892
:101B4800002318461037BD4680BD00BF0020024064
:101B5800001002400CC900080C0000200000002002
:101B680090B48AB000AF2A4B3C1D0FCB84E80F001D
:101B780040F201233B800023FB610023BB6100236B
:101B88007B6200237B6100233B62224B5B68FB6125
:101B9800FB6903F00C03042B02D0082B03D02DE0C3
:101BA8001D4B3B622DE0FB699B0C03F00F0307F113
:101BB8002802134413F8243C7B61FB6903F4803347
:101BC800002B13D0134B5B685B0C03F0010307F188
:101BD8002802134413F8283CBB617B690E4A02FBB8
:101BE80003F2BB69B2FBF3F37B6204E07B690B4A47
:101BF80002FB03F37B627B6A3B6202E0064B3B62BB
:101C080000BF3B6A18462837BD4690BC704700BFE6
:101C180008B100080010024000127A0000093D00D7
:101C280080B400AF024B1B681846BD4680BC7047A5
:101C38000C00002080B500AFFFF7F2FF0246054B0D
:101C48005B681B0A03F007030349CB5C22FA03F322
:101C5800184680BD001002401CC9000880B500AFBE
:101C6800FFF7DEFF0246054B5B68DB0A03F007035C
:101C78000349CB5C22FA03F3184680BD00100240EA
:101C88001CC9000880B485B000AF78600A4B1B6897
:101C98000A4AA2FB03235B0A7A6802FB03F3FB6090
:101CA80000BFFB685A1EFA60002BF9D100BF00BFC5
:101CB8001437BD4680BC70470C000020D34D62101D
:101CC80080B582B000AF78607B68002B01D101231A
:101CD8001DE07B6893F83D30DBB2002B06D17B68B2
:101CE800002283F83C20786807F0ECFA7B6802222F
:101CF80083F83D207B681A687B68043319461046D0
:101D080000F01CFA7B68012283F83D200023184666
:101D18000837BD4680BD80B485B000AF78607B6869
:101D28001B68DA687B681B6842F00102DA607B682E
:101D38001B689B6803F00703FB60FB68062B07D052
:101D48007B681B681A687B681B6842F001021A608E
:101D5800002318461437BD4680BC704780B582B052
:101D680000AF78607B681B681B6903F00203022BD5
:101D780022D17B681B68DB6803F00203022B1BD1AE
:101D88007B681B686FF002021A617B6801221A7770
:101D98007B681B689B6903F00303002B03D07868FA
:101DA80000F0B1F905E0786800F0A4F9786800F06F
:101DB800B3F97B6800221A777B681B681B6903F0FC
:101DC8000403042B22D17B681B68DB6803F004033F
:101DD800042B1BD17B681B686FF004021A617B68B7
:101DE80002221A777B681B689B6903F44073002BF7
:101DF80003D0786800F087F905E0786800F07AF990
:101E0800786800F089F97B6800221A777B681B687C
:101E18001B6903F00803082B22D17B681B68DB6869
:101E280003F00803082B1BD17B681B686FF00802BE
:101E38001A617B6804221A777B681B68DB6903F0E8
:101E48000303002B03D0786800F05DF905E078689B
:101E580000F050F9786800F05FF97B6800221A7783
:101E68007B681B681B6903F01003102B22D17B6869
:101E78001B68DB6803F01003102B1BD17B681B6801
:101E88006FF010021A617B6808221A777B681B685A
:101E9800DB6903F44073002B03D0786800F033F952
:101EA80005E0786800F026F9786800F035F97B6875
:101EB80000221A777B681B681B6903F00103012B5A
:101EC8000ED17B681B68DB6803F00103012B07D187
:101ED8007B681B686FF001021A61786807F08CF85C
:101EE8007B681B681B6903F08003802B0ED17B681D
:101EF8001B68DB6803F08003802B07D17B681B68B5
:101F08006FF080021A61786800F075FA7B681B68C8
:101F18001B6903F04003402B0ED17B681B68DB680C
:101F280003F04003402B07D17B681B686FF0400229
:101F38001A61786800F0F9F87B681B681B6903F080
:101F48002003202B0ED17B681B68DB6803F020037D
:101F5800202B07D17B681B686FF020021A61786814
:101F680000F040FA00BF0837BD4680BD80B584B098
:101F780000AF786039607B6893F83C30012B01D161
:101F88000223B3E07B68012283F83C207B680222AD
:101F980083F83D207B681B689B68FB60FB6823F027
:101FA8007703FB60FB6823F47F43FB607B681B6857
:101FB800FA689A603B681B68B3F5005F3ED0B3F5DA
:101FC800005F00F28780B3F5805F00F08580B3F58D
:101FD800805F7FD8702B1AD0702B7BD8602B50D0A5
:101FE800602B77D8502B3CD0502B73D8402B58D02F
:101FF800402B6FD8302B64D0302B6BD8202B60D07F
:10200800202B67D8002B5CD0102B5AD062E07B685D
:1020180018683B6899683B685A683B68DB6800F059
:102028007EF97B681B689B68FB60FB6843F077035D
:10203800FB607B681B68FA689A604EE07B681868EA
:102048003B6899683B685A683B68DB6800F067F949
:102058007B681B689A687B681B6842F480429A60B8
:102068003BE07B6818683B6859683B68DB681A4640
:1020780000F0DEF87B681B685021184600F035F93F
:102088002BE07B6818683B6859683B68DB681A4630
:1020980000F0FCF87B681B686021184600F025F901
:1020A8001BE07B6818683B6859683B68DB681A4620
:1020B80000F0BEF87B681B684021184600F015F94F
:1020C8000BE07B681A683B681B681946104600F0ED
:1020D8000CF902E000BF00E000BF7B68012283F832
:1020E8003D207B68002283F83C20002318461037E7
:1020F800BD4680BD80B483B000AF786000BF0C37A8
:10210800BD4680BC704780B483B000AF786000BF24
:102118000C37BD4680BC704780B483B000AF786090
:1021280000BF0C37BD4680BC704780B483B000AF99
:10213800786000BF0C37BD4680BC704780B485B05E
:1021480000AF786039607B681B68FB607B68334A46
:10215800934213D07B68324A93420FD07B68B3F125
:10216800804F0BD07B682F4A934207D07B682E4A5A
:10217800934203D07B682D4A934208D1FB6823F031
:102188007003FB603B685B68FA681343FB607B681D
:10219800224A934213D07B68214A93420FD07B682E
:1021A800B3F1804F0BD07B681E4A934207D07B68FF
:1021B8001D4A934203D07B681C4A934208D1FB68AE
:1021C80023F44073FB603B68DB68FA681343FB60E9
:1021D800FB6823F080023B685B691343FB607B6804
:1021E800FA681A603B689A687B68DA623B681A6822
:1021F8007B689A627B68094A934203D07B68084AE5
:10220800934203D13B681A697B681A637B68012291
:102218005A6100BF1437BD4680BC7047002C01408E
:10222800003401400004004000080040000C004059
:1022380080B487B000AFF860B9607A60FB681B6A49
:102248007B61FB681B6A23F00102FB681A62FB686A
:102258009B693B613B6923F0F0033B617B681B0191
:102268003A6913433B617B6923F00A037B617A690E
:10227800BB6813437B61FB683A699A61FB687A69BA
:102288001A6200BF1C37BD4680BC704780B487B057
:1022980000AFF860B9607A60FB681B6A23F010022F
:1022A800FB681A62FB689B697B61FB681B6A3B6180
:1022B8007B6923F470437B617B681B037A69134352
:1022C8007B613B6923F0A0033B61BB681B013A6952
:1022D80013433B61FB687A699A61FB683A691A6241
:1022E80000BF1C37BD4680BC704780B485B000AFC6
:1022F800786039607B689B68FB60FB6823F070033B
:10230800FB603A68FB68134343F00703FB607B6894
:10231800FA689A6000BF1437BD4680BC704780B425
:1023280087B000AFF860B9607A603B60FB689B6873
:102338007B617B6923F47F437B613B681A027B687E
:102348001A43BB6813437A6913437B61FB687A6954
:102358009A6000BF1C37BD4680BC704780B485B00A
:1023680000AF786039607B6893F83C30012B01D16D
:10237800022332E07B68012283F83C207B6802223A
:1023880083F83D207B681B685B68FB607B681B6883
:102398009B68BB60FB6823F07003FB603B681B68AD
:1023A800FA681343FB60BB6823F08003BB603B689B
:1023B8005B68BA681343BB607B681B68FA685A603D
:1023C8007B681B68BA689A607B68012283F83D20A5
:1023D8007B68002283F83C20002318461437BD464A
:1023E80080BC704780B483B000AF786000BF0C3702
:1023F800BD4680BC704780B483B000AF786000BF32
:102408000C37BD4680BC704780B582B000AF78609D
:102418007B68002B01D101233FE07B6893F83930BA
:10242800DBB2002B06D17B68002283F8382078685D
:1024380006F098FF7B68242283F839207B681B68A4
:10244800DA687B681B6822F40052DA60786800F06A
:102458008BFB7B681B681A697B681B6822F49042B7
:102468001A617B681B685A697B681B6822F02A021C
:102478005A617B681B68DA687B681B6842F4005203
:10248800DA607B680022DA637B68202283F83920CF
:102498007B68202283F83A20002318460837BD4677
:1024A80080BD80B588B002AFF860B9603B60134664
:1024B800FB8000237B61FB6893F83930DBB2202B6B
:1024C80040F08380BB68002B02D0FB88002B01D131
:1024D80001237BE0FB6893F83830012B01D10223FC
:1024E80074E0FB68012283F83820FB680022DA6375
:1024F800FB68212283F83920FEF790FB7861FB689E
:10250800FA889A84FB68FA88DA8442E0FB68DB8CF4
:102518009BB2013B9AB2FB68DA84FB689B68B3F50F
:10252800805F22D13B6800937B6900228021F86894
:1025380000F0B0F90346002B01D0032346E0BB6846
:102548003B613B691B881A46FB681B68C2F308029B
:102558005A60FB681B69002B03D1BB680233BB6060
:1025680017E0BB680133BB6013E03B6800937B69ED
:1025780000228021F86800F08DF90346002B01D075
:10258800032323E0BB685A1CBA601A78FB681B68EF
:102598005A60FB68DB8C9BB2002BB7D13B68009379
:1025A8007B6900224021F86800F074F90346002B8B
:1025B80001D003230AE0FB68202283F83920FB6856
:1025C800002283F83820002300E002231846183739
:1025D800BD4680BD80B485B000AFF860B9601346D1
:1025E800FB80FB6893F83A30DBB2202B40D1BB6804
:1025F800002B02D0FB88002B01D1012339E0FB68B6
:1026080093F83830012B01D1022332E0FB68012214
:1026180083F83820FB68BA689A62FB68FA889A855A
:10262800FB68FA88DA85FB680022DA63FB682222F5
:1026380083F83A20FB68002283F83820FB681B687F
:10264800DA68FB681B6842F48072DA60FB681B6812
:102658005A69FB681B6842F001025A61FB681B68F3
:10266800DA68FB681B6842F02002DA60002300E0A9
:10267800022318461437BD4680BC704780B588B021
:1026880000AF78607B681B681B68FB617B681B6810
:10269800DB68BB617B681B685B697B6100233B610E
:1026A8000023FB60FB6903F00F033B613B69002BD0
:1026B8000DD1FB6903F02003002B08D0BB6903F0A0
:1026C8002003002B03D0786800F0CCF9CBE03B69FD
:1026D800002B00F0AB807B6903F00103002B05D1D0
:1026E800BB6903F49073002B00F0A080FB6903F032
:1026F8000103002B0AD0BB6903F48073002B05D0BB
:102708007B68DB6B43F001027B68DA63FB6903F0EB
:102718000403002B0AD07B6903F00103002B05D0CA
:102728007B68DB6B43F002027B68DA63FB6903F0CA
:102738000203002B0AD07B6903F00103002B05D0AC
:102748007B68DB6B43F004027B68DA63FB6903F0A8
:102758000803002B0AD07B6903F00103002B05D086
:102768007B68DB6B43F008027B68DA637B68DB6BB2
:10277800002B77D0FB6903F02003002B07D0BB693F
:1027880003F02003002B02D0786800F06BF97B6817
:102798001B685B6903F04003002B14BF012300236F
:1027A800DBB2FB607B68DB6B03F00803002B02D114
:1027B800FB68002B31D0786800F0B6F87B681B689E
:1027C8005B6903F04003002B23D07B681B685A69C0
:1027D8007B681B6822F040025A617B685B6B002BA8
:1027E80013D07B685B6B214A5A637B685B6B184626
:1027F800FEF750FB0346002B16D07B685B6B5B6BC8
:102808007A68526B104698470EE0786800F039F8FD
:102818000AE0786800F035F806E0786800F031F8EA
:102828007B680022DA631DE000BF1BE0FB6903F050
:102838008003002B08D0BB6903F08003002B03D072
:10284800786800F0A2F80EE0FB6903F04003002B63
:1028580009D0BB6903F04003002B04D0786800F06E
:10286800E9F800E000BF2037BD4680BD6B290008AD
:1028780080B483B000AF786000BF0C37BD4680BC21
:10288800704780B483B000AF786000BF0C37BD4696
:1028980080BC704780B584B000AFF860B9603B6019
:1028A8001346FB712CE0BB69B3F1FF3F28D0BB692D
:1028B800002B07D0FEF7B2F902463B68D31ABA6973
:1028C8009A421DD2FB681B68DA68FB681B6822F411
:1028D800D072DA60FB681B685A69FB681B6822F0D3
:1028E80001025A61FB68202283F83920FB68202204
:1028F80083F83A20FB68002283F8382003230FE08E
:10290800FB681B681A68BB681340BA689A420CBF18
:1029180001230023DBB21A46FB799A42C3D0002375
:1029280018461037BD4680BD80B483B000AF7860CC
:102938007B681B68DA687B681B6822F49072DA602F
:102948007B681B685A697B681B6822F001025A6120
:102958007B68202283F83A2000BF0C37BD4680BC34
:10296800704780B584B000AF78607B685B6AFB60B5
:10297800FB680022DA85FB680022DA84F868FFF732
:1029880080FF00BF1037BD4680BD80B485B000AF62
:1029980078607B6893F83930DBB2212B44D17B68AF
:1029A8009B68B3F5805F1AD17B681B6AFB60FB6884
:1029B8001B881A467B681B68C2F308025A607B684A
:1029C8001B69002B05D17B681B6A9A1C7B681A62FD
:1029D8000EE07B681B6A5A1C7B681A6208E07B68F9
:1029E8001B6A591C7A6811621A787B681B685A60DE
:1029F8007B68DB8C9BB2013B9BB27A681946D18419
:102A0800002B0FD17B681B68DA687B681B6822F093
:102A18008002DA607B681B68DA687B681B6842F0B2
:102A28004002DA60002300E0022318461437BD464E
:102A380080BC704780B582B000AF78607B681B6847
:102A4800DA687B681B6822F04002DA607B68202223
:102A580083F839207868FFF70BFF002318460837FA
:102A6800BD4680BD80B584B000AF78607B6893F8C0
:102A78003A30DBB2222B71D17B689B68B3F5805F5B
:102A880023D17B689B6AFB607B681B69002B0ED196
:102A98007B681B685B689BB2C3F308039AB2FB6848
:102AA8001A807B689B6A9A1C7B689A6229E07B681B
:102AB8001B685B689BB2DBB29AB2FB681A807B68C2
:102AC8009B6A5A1C7B689A621BE07B681B69002B17
:102AD8000AD17B681B6858687B689B6A591C7A68AE
:102AE8009162C2B21A700CE07B681B685B68DAB24C
:102AF8007B689B6A581C7968886202F07F02D2B2B0
:102B08001A707B68DB8D9BB2013B9BB27A681946D1
:102B1800D185002B20D17B681B68DA687B681B682D
:102B280022F02002DA607B681B68DA687B681B6821
:102B380022F48072DA607B681B685A697B681B68BC
:102B480022F001025A617B68202283F83A207868D3
:102B580006F0A0F9002302E0002300E00223184653
:102B68001037BD4680BD000080B584B000AF7860E6
:102B78007B681B681B6923F440517B68DA687B68B3
:102B88001B680A431A617B689A687B681B691A4349
:102B98007B685B691343FB607B681B68DB6823F415
:102BA800B05323F00C037A681268F9680B43D360BA
:102BB8007B681B685B6923F440717B689A697B6852
:102BC8001B680A435A617B681B68524A93424ED17C
:102BD800FFF744F8B860BA6813469B0013449A009C
:102BE8001A447B685B689B00B2FBF3F34A4AA2FB7A
:102BF80003235B091901BA6813469B0013449A0022
:102C08001A447B685B689B00B2FBF3F2424BA3FB60
:102C180002035B09642000FB03F3D31A1B01323360
:102C28003D4AA2FB03235B0903F0F0031944BA6889
:102C380013469B0013449A001A447B685B689B0008
:102C4800B2FBF3F2344BA3FB02035B09642000FBE5
:102C580003F3D31A1B0132332F4AA2FB03235B0968
:102C680003F00F027B681B680A449A604DE0FEF788
:102C7800E1FFB860BA6813469B0013449A001A44EF
:102C88007B685B689B00B2FBF3F3234AA2FB032338
:102C98005B091901BA6813469B0013449A001A4449
:102CA8007B685B689B00B2FBF3F21B4BA3FB020340
:102CB8005B09642000FB03F3D31A1B013233164A65
:102CC800A2FB03235B0903F0F0031944BA68134617
:102CD8009B0013449A001A447B685B689B00B2FB14
:102CE800F3F20D4BA3FB02035B09642000FB03F323
:102CF800D31A1B013233084AA2FB03235B0903F0F2
:102D08000F027B681B680A449A6000BF1037BD46F3
:102D180080BD00BF003801401F85EB5180B588B0E9
:102D280000AF07F1100300221A605A609A60DA6057
:102D3800464B9B69454A43F020039361434B9B698B
:102D480003F02003FB60FB68404B9B693F4A43F05C
:102D5800040393613D4B9B6903F00403BB60BB68AC
:102D68003A4B9B69394A43F010039361374B9B698F
:102D780003F010037B607B6800224FF480713448B5
:102D8800FEF73BFB002204213248FEF736FB012305
:102D98003B61314B7B610223BB6107F1100319468C
:102DA8002B48FEF77FF920233B612C4B7B610123E5
:102DB800BB6107F1100319462948FEF773F94FF470
:102DC80080733B6101237B610023BB610223FB61AC
:102DD80007F1100319461E48FEF764F94FF4004343
:102DE8003B611E4B7B610123BB6107F11003194650
:102DF8001748FEF757F904233B6101237B61002341
:102E0800BB610223FB6107F1100319461148FEF765
:102E180049F9002201210620FEF705F80620FEF7F1
:102E28001EF8012201211720FDF7FDFF1720FEF7EC
:102E380016F8022201212820FDF7F5FF2820FEF7C9
:102E48000EF800BF2037BD4680BD00BF001002400D
:102E5800000801400014014000001110000021107A
:102E68000010014080B483B000AF0346FB800D4BD7
:102E78004FF480725A610B4B4FF400725A610A4A40
:102E8800FB88D360074B80225A61064B80221A6167
:102E9800044B4FF400721A6100BF0C37BD4680BC6A
:102EA800704700BF00100140000C014080B483B09F
:102EB80000AF0346FB800D4B4FF480721A610B4B39
:102EC8004FF400725A610A4AFB88D360074B80228C
:102ED8005A61064B80221A61044B4FF400721A6142
:102EE80000BF0C37BD4680BC704700BF00100140D2
:102EF800000C014080B582B000AF1D4B4FF0883206
:102F08001A601B4B4FF088325A60194B0022DA6066
:102F1800184B4FF480721A61164B4FF400725A61C5
:102F2800144B40225A61144B9B8848F689129342ED
:102F380002D10120FDF77CFE0D4B9B68FB800D4BF9
:102F480040221A610B4B4FF400721A61084B4FF084
:102F580033321A60064B4FF033325A60044B4FF647
:102F6800FF72DA60FB8818460837BD4680BD00BF8F
:102F7800000C0140001001409800002080B582B08C
:102F880000AF03460A46FB801346BB80FB88184601
:102F9800FFF768FF0C4B4FF480721A610A4B4FF42D
:102FA80000725A61094ABB88D360074B80225A6174
:102FB800054B80221A61044B4FF400721A6100BF5E
:102FC8000837BD4680BD00BF00100140000C01401D
:102FD80080B582B000AF0346FB80FB881846FFF738
:102FE80041FFFFF787FF034618460837BD4680BDF7
:102FF80080B500AF034B1B891846FFF733FF00BFAE
:1030080080BD00BF9800002080B582B000AF0346A5
:103018000A46FB801346BB80734B9B8849F24132BA
:10302800934205D0704B9B8845F21032934264D18D
:103038006D4B5B891846FFF715FF6C4B4FF4807298
:103048001A616A4B4FF400725A61FB881B0A9AB2E4
:10305800674BDA60654B80225A61644B80221A61A3
:10306800624B4FF400721A61604B4FF480721A6120
:103078005E4B4FF400725A61FB885D4ADBB2D36045
:103088005A4B80225A61594B80221A61574B4FF490
:1030980000721A61544B9B891846FFF7E3FE534BA5
:1030A8004FF480721A61514B4FF400725A61BB8819
:1030B8001B0A9AB24E4BDA604C4B80225A614B4B3A
:1030C80080221A61494B4FF400721A61474B4FF442
:1030D80080721A61454B4FF400725A61BB88444AAA
:1030E800DBB2D360414B80225A61404B80221A6187
:1030F8003E4B4FF400721A6148E23B4B9B8846F600
:103108000402934276D1384B9B79012B06D1364B7A
:103118001A88FB88D31A9BB2013BFB80324B5B8930
:103128001846FFF79FFE314B4FF480721A612F4B00
:103138004FF400725A61FB881B0A9AB22C4BDA6072
:103148002A4B80225A61294B80221A61274B4FF45F
:1031580000721A61254B4FF480721A61234B4FF4A9
:1031680000725A61FB88224ADBB2D3601F4B80226F
:103178005A611E4B80221A611C4B4FF400721A616F
:10318800194B9B891846FFF76DFE184B4FF4807258
:103198001A61164B4FF400725A61BB881B0A9AB227
:1031A800134BDA60114B80225A61104B80221A614E
:1031B8000E4B4FF400721A610C4B4FF480721A6177
:1031C8000A4B4FF400725A61BB88094ADBB2D360DC
:1031D800064B80225A61054B80221A61034B4FF43B
:1031E80000721A61D2E100BF98000020001001406F
:1031F800000C0140994B9B8841F66312934240F0C2
:103208003381964B9B79002B63D1944B1A88FB88AA
:10321800D31A9BB2013BFB80904B5B891846FFF7A2
:1032280021FE8F4B4FF480721A618D4B4FF4007260
:103238005A618C4B0022DA60894B80225A61884B94
:1032480080221A61864B4FF400721A61844B4FF446
:1032580080721A61824B4FF400725A61814B0022CE
:10326800DA607F4B80225A617D4B80221A617C4B49
:103278004FF400721A617A4B4FF480721A61784BDE
:103288004FF400725A61FB881B0A9AB2754BDA60D8
:10329800734B80225A61724B80221A61704B4FF433
:1032A80000721A616E4B4FF480721A616C4B4FF4C6
:1032B80000725A61FB886B4ADBB2D360684B80228C
:1032C8005A61674B80221A61654B4FF400721A618C
:1032D80061E0624B5B891846FFF7C4FD604B4FF411
:1032E80080721A615E4B4FF400725A61FB881B0AA8
:1032F8009AB25C4BDA605A4B80225A61584B802252
:103308001A61574B4FF400721A61554B4FF4807293
:103318001A61534B4FF400725A61FB88514ADBB271
:10332800D3604F4B80225A614D4B80221A614C4B1F
:103338004FF400721A614A4B4FF480721A61484B7D
:103348004FF400725A61454B1B88013B1A12454BDA
:10335800DA60434B80225A61414B80221A61404B0C
:103368004FF400721A613E4B4FF480721A613C4B65
:103378004FF400725A61394B1B88013B394ADBB262
:10338800D360374B80225A61354B80221A61344B07
:103398004FF400721A61314B9B891846FFF762FDA2
:1033A8002F4B4FF480721A612D4B4FF400725A6103
:1033B800BB881B0A9AB22B4BDA60294B80225A61D0
:1033C800274B80221A61264B4FF400721A61244B56
:1033D8004FF480721A61224B4FF400725A61BB8815
:1033E800204ADBB2D3601E4B80225A611C4B8022DC
:1033F8001A611B4B4FF400721A61194B4FF480721B
:103408001A61174B4FF400725A61144B5B88013BE9
:103418001A12144BDA60124B80225A61104B802228
:103428001A610F4B4FF400721A610D4B4FF4807202
:103438001A610B4B4FF400725A61084B5B88013BD1
:10344800084ADBB2D360064B80225A61044B8022C3
:103458001A61034B4FF400721A6197E0980000203C
:1034680000100140000C01404A4B9B8845F2105265
:10347800934272D1474B5B891846FFF7F3FC464BE2
:103488004FF480721A61444B4FF400725A61FB8802
:103498001B0A9AB2414BDA603F4B80225A613E4B7D
:1034A80080221A613C4B4FF400721A61394B5B89D8
:1034B80001339BB21846FFF7D5FC374B4FF48072A7
:1034C8001A61354B4FF400725A61FB88334ADBB2FC
:1034D800D360314B80225A612F4B80221A612E4BC8
:1034E8004FF400721A612B4B9B891846FFF7BAFC00
:1034F800294B4FF480721A61274B4FF400725A61BE
:10350800BB881B0A9AB2254BDA60234B80225A618A
:10351800214B80221A61204B4FF400721A611D4B17
:103528009B8901339BB21846FFF79CFC1A4B4FF45A
:1035380080721A61184B4FF400725A61BB88174A9F
:10354800DBB2D360144B80225A61134B80221A617C
:10355800114B4FF400721A6118E00E4B9B79012B46
:1035680006D10C4B1A88FB88D31A9BB2013BFB800F
:10357800084B5B89FA8811461846FFF7FFFC054B94
:103588009B89BA8811461846FFF7F8FC00BF083730
:10359800BD4680BD9800002000100140000C01408D
:1035A80080B584B000AF0346FB710023FB81002384
:1035B800BB81784B9B79012B0BD1764B9B8846F6C8
:1035C8000402934205D0734B9B8841F663129342E1
:1035D80009D1704B9B79002B34D16E4B9B8841F6F7
:1035E800631293422ED1FB79072B2CD801A252F8F3
:1035F80023F000BF1D3600082336000829360008CE
:103608002F360008353600083B36000841360008DA
:10361800473600080623FB7115E00723FB7112E00B
:103628000423FB710FE00523FB710CE00123FB7100
:1036380009E00023FB7106E00323FB7103E002238A
:10364800FB7100E000BF534B9B8849F24132934223
:1036580018D0504B9B8846F60402934212D04D4B2B
:103668009B8845F2103293420CD04A4B9B8845F216
:103678001052934206D0474B9B8841F663129342FF
:1036880040F04F82FB79072B35D801A252F823F07E
:10369800FF360008B9360008C3360008CD360008E2
:1036A800D7360008E1360008EB360008F536000882
:1036B800FB8943F08003FB811DE0FB8943F0400355
:1036C800FB8118E0FB8943F0C003FB8113E0FB8911
:1036D80043F02003FB810EE0FB8943F06003FB818C
:1036E80009E0FB8943F0A003FB8104E0FB8943F078
:1036F800E003FB8100BF274B9B8845F210529342A1
:1037080003D14FF45853BB8101E03623BB81214BD1
:103718009B8845F2103293420FD01E4B9B8845F28E
:103728001052934209D01B4B9B8841F66312934277
:1037380003D0FB8943F00803FB81164B9B8846F6B0
:103748000402934203D1FB8943F00203FB81FA8907
:10375800BB8911461846FFF711FC0E4B9B8841F6B2
:103768006312934228D0FB8903F02003002B13D067
:10377800084B1A88074B5B889A421DD2054B1B8859
:103788007B81044B5A88034B1A80024A7B895380F9
:1037980012E000BF980000207F4B1A887E4B5B88A0
:1037A8009A4209D97C4B1B887B817B4B5A887A4B80
:1037B8001A80794A7B895380774B9B8845F210524F
:1037C800934240F0EF80744B5B891846FFF74AFB41
:1037D800724B4FF480721A61704B4FF400725A6149
:1037E8006F4B0022DA606D4B80225A616B4B80224E
:1037F8001A616A4B4FF400721A61674B5B89013397
:103808009BB21846FFF72EFB644B4FF480721A6187
:10381800624B4FF400725A61614B0022DA605F4BD1
:1038280080225A615D4B80221A615C4B4FF4007212
:103838001A61594B5B8902339BB21846FFF712FB9A
:10384800564B4FF480721A61544B4FF400725A6110
:10385800514B1B88013B1A12514BDA604F4B8022A7
:103868005A614E4B80221A614C4B4FF400721A6118
:10387800494B5B8903339BB21846FFF7F3FA474B72
:103888004FF480721A61454B4FF400725A61424BF3
:103898001B88013B424ADBB2D360404B80225A610D
:1038A8003E4B80221A613D4B4FF400721A613A4B2D
:1038B8009B891846FFF7D6FA384B4FF480721A6185
:1038C800364B4FF400725A61354B0022DA60334BA5
:1038D80080225A61314B80221A61304B4FF40072BA
:1038E8001A612D4B9B8901339BB21846FFF7BAFA30
:1038F8002A4B4FF480721A61284B4FF400725A61B8
:10390800274B0022DA60254B80225A61234B802204
:103918001A61224B4FF400721A611F4B9B890233C4
:103928009BB21846FFF79EFA1C4B4FF480721A613F
:103938001A4B4FF400725A61174B5B88013B1A12FD
:10394800174BDA60154B80225A61144B80221A619A
:10395800124B4FF400721A610F4B9B8903339BB2D1
:103968001846FFF77FFA0D4B4FF480721A610B4B24
:103978004FF400725A61084B5B88013B084ADBB27E
:10398800D360064B80225A61044B80221A61034B94
:103998004FF400721A610BE19800002000100140FA
:1039A800000C0140844B5B891846FFF75BFA834B98
:1039B8004FF480721A61814B4FF400725A61804B48
:1039C8000022DA607D4B80225A617C4B80221A618A
:1039D8007A4B4FF400721A61784B4FF480721A6177
:1039E800764B4FF400725A61754B0022DA60734BC4
:1039F80080225A61714B80221A61704B4FF4007219
:103A08001A616E4B4FF480721A616C4B4FF400725E
:103A18005A61694B1B88013B1A12694BDA60674B84
:103A280080225A61654B80221A61644B4FF4007200
:103A38001A61624B4FF480721A61604B4FF4007246
:103A48005A615D4B1B88013B5D4ADBB2D3605B4B1F
:103A580080225A61594B80221A61584B4FF40072E8
:103A68001A61554B9B891846FFF7FCF9534B4FF4E5
:103A780080721A61514B4FF400725A61504B002208
:103A8800DA604E4B80225A614C4B80221A614B4BB4
:103A98004FF400721A61494B4FF480721A61474B18
:103AA8004FF400725A61464B0022DA60434B802281
:103AB8005A61424B80221A61404B4FF400721A61DE
:103AC8003E4B4FF480721A613C4B4FF400725A61BE
:103AD800394B5B88013B1A12394BDA60374B80222D
:103AE8005A61364B80221A61344B4FF400721A61C6
:103AF800324B4FF480721A61304B4FF400725A61A6
:103B08002D4B5B88013B2E4ADBB2D3602B4B8022C6
:103B18005A612A4B80221A61284B4FF400721A61AD
:103B280046E0FB79072B36D801A252F823F000BFF4
:103B3800593B0008633B00086D3B00089F3B0008A9
:103B4800773B0008813B00088B3B0008953B000849
:103B5800FB8943F03003FB811DE0FB8943F0100330
:103B6800FB8118E0FB8943F02003FB8113E0FB890C
:103B780043F03803FB810EE0FB8943F02803FB8107
:103B880009E0FB8943F01803FB8104E0FB8943F05B
:103B98000803FB8100BF0323BB81FB8943F48053E7
:103BA800FB81FA89BB8911461846FFF7E7F900BF80
:103BB80000BF1037BD4680BD9800002000100140AE
:103BC800000C014080B582B000AF03460A46FB8076
:103BD8001346BB80BA88FB8811461846FFF714FACB
:103BE800FFF706FA0C4B4FF480721A610A4B4FF438
:103BF80000725A61094B1A88094BDA60064B802219
:103C08005A61054B80221A61034B4FF400721A6106
:103C180000BF0837BD4680BD001001409400002059
:103C2800000C014080B582B000AF0346FB800B4614
:103C3800BB8013467B80754B9B8849F24132934287
:103C480005D0724B9B8845F21032934264D16F4B7A
:103C58005B891846FFF706F96D4B4FF480721A61BD
:103C68006B4B4FF400725A61FB881B0A9AB2694B7E
:103C7800DA60674B80225A61654B80221A61644B77
:103C88004FF400721A61624B4FF480721A61604BF4
:103C98004FF400725A61FB885E4ADBB2D3605C4B1A
:103CA80080225A615A4B80221A61594B4FF4007294
:103CB8001A61564B9B891846FFF7D4F8544B4FF4BA
:103CC80080721A61524B4FF400725A61BB881B0A0A
:103CD8009AB2504BDA604E4B80225A614C4B80228C
:103CE8001A614B4B4FF400721A61494B4FF48072C2
:103CF8001A61474B4FF400725A61BB88454ADBB2E0
:103D0800D360434B80225A61414B80221A61404B59
:103D18004FF400721A61E6E13C4B9B8845F2105261
:103D2800934279D1394B5B891846FFF79BF8384B9A
:103D38004FF480721A61364B4FF400725A61FB8857
:103D48001B0A9AB2334BDA60314B80225A61304BEE
:103D580080221A612E4B4FF400721A612B4B5B893B
:103D680001339BB21846FFF77DF8294B4FF4807258
:103D78001A61274B4FF400725A61FB88254ADBB25F
:103D8800D360234B80225A61214B80221A61204B39
:103D98004FF400721A611D4B9B891846FFF762F8B1
:103DA8001B4B4FF480721A61194B4FF400725A6121
:103DB800BB881B0A9AB2174BDA60154B80225A61EE
:103DC800134B80221A61124B4FF400721A610F4B89
:103DD8009B8901339BB21846FFF744F80C4B4FF40C
:103DE80080721A610A4B4FF400725A61BB88094A03
:103DF800DBB2D360064B80225A61054B80221A61E0
:103E0800034B4FF400721A616DE100BF9800002067
:103E180000100140000C0140684B9B8841F663127A
:103E2800934240F0D180654B9B79002B06D1634BC0
:103E38001A88FB88D31A9BB2013BFB805F4B5B89D6
:103E48001846FFF70FF85E4B4FF480721A615C4B0F
:103E58004FF400725A61FB881B0A9AB2594BDA6018
:103E6800574B80225A61564B80221A61544B4FF4AB
:103E780000721A61524B4FF480721A61504B4FF422
:103E880000725A61FB884F4ADBB2D3604C4B8022E8
:103E98005A614B4B80221A61494B4FF400721A61E8
:103EA800474B4FF480721A61454B4FF400725A61C8
:103EB800FB881B0A9AB2434BDA60414B80225A6155
:103EC8003F4B80221A613E4B4FF400721A613C4B03
:103ED8004FF480721A613A4B4FF400725A61FB88B2
:103EE800384ADBB2D360364B80225A61344B802289
:103EF8001A61334B4FF400721A61304B9B89184694
:103F0800FEF7B0FF2E4B4FF480721A612C4B4FF422
:103F180000725A61BB881B0A9AB22A4BDA60284B96
:103F280080225A61264B80221A61254B4FF4007279
:103F38001A61234B4FF480721A61214B4FF40072BF
:103F48005A61BB881F4ADBB2D3601D4B80225A617D
:103F58001B4B80221A611A4B4FF400721A61184BDE
:103F68004FF480721A61164B4FF400725A61BB8885
:103F78001B0A9AB2134BDA60114B80225A61104B1C
:103F880080221A610E4B4FF400721A610C4B4FF4E9
:103F980080721A610A4B4FF400725A61BB88094A51
:103FA800DBB2D360064B80225A61054B80221A612E
:103FB800034B4FF400721A6195E000BF980000208F
:103FC80000100140000C01405E4B9B8846F604023D
:103FD80093426FD15B4B9B79012B06D1594B1A88C1
:103FE800FB88D31A9BB2013BFB80564B5B89184672
:103FF800FEF738FF544B4FF480721A61524B4FF45E
:1040080000725A61FB881B0A9AB2504BDA604E4B19
:1040180080225A614C4B80221A614B4B4FF400723C
:104028001A61494B4FF480721A61474B4FF4007282
:104038005A61FB88454ADBB2D360434B80225A6100
:10404800414B80221A61404B4FF400721A613D4B7C
:104058009B891846FEF706FF3B4B4FF480721A61A6
:10406800394B4FF400725A61BB881B0A9AB2374B1E
:10407800DA60354B80225A61334B80221A61324B09
:104088004FF400721A61304B4FF480721A612E4B54
:104098004FF400725A61BB882C4ADBB2D3602A4BBA
:1040A80080225A61284B80221A61274B4FF40072F4
:1040B8001A6118E0234B9B79012B06D1214B1A88F2
:1040C800FB88D31A9BB2013BFB801E4B5B89FA88A5
:1040D80011461846FEF752FF1A4B9B89BA881146BB
:1040E8001846FEF74BFF184B4FF480725A61164B77
:1040F8004FF400725A61134B1A89144BDA60124B51
:1041080080225A61104B80221A610F4B4FF40072C3
:104118001A610D4B4FF480721A610B4B4FF4007209
:104128005A610A4A7B88D360074B80225A61064B42
:1041380080221A61044B4FF400721A6100BF0837DD
:10414800BD4680BD9800002000100140000C0140D1
:1041580090B583B000AF0346FB71BE20FEF782FE28
:104168004B4B4FF480721A61494B4FF400725A61FD
:10417800484B0522DA60464B80225A61444B802224
:104188001A61434B4FF400721A61414B4FF480722D
:104198001A613F4B4FF400725A61FB791846FCF7DD
:1041A80091F939A3D3E90023FCF7F6F902460B4647
:1041B800384C10461946FCF729FC0346E360344B9B
:1041C80080225A61324B80221A61314B4FF40072BF
:1041D8001A612F4B4FF480721A612D4B4FF4007205
:1041E8005A612C4B0122DA60294B80225A61284BF4
:1041F80080221A61264B4FF400721A61244B4FF447
:1042080080721A61224B4FF400725A61214BFF22CF
:10421800DA601F4B80225A611D4B80221A611C4BA9
:104228004FF400721A611A4B4FF480721A61184BDE
:104238004FF400725A61174B0022DA60144B802247
:104248005A61134B80221A61114B4FF400721A61A4
:104258000F4B4FF480721A610D4B4FF400725A6184
:104268000C4B0022DA600A4B80225A61084B8022EC
:104278001A61074B4FF400721A6100BF0C37BD4634
:1042880090BD00BFAFF30080666666666666044050
:1042980000100140000C014080B582B000AF034619
:1042A800FB71FB79002B77D1804B00229A717F4BF1
:1042B800F0221A807D4B4FF4A0725A807B4B9B886A
:1042C80049F2413293420BD0784B9B8846F6040260
:1042D800934205D0754B9B8845F2103293421ED10C
:1042E800724B2C221A81714B2A225A816F4B2B2236
:1042F8009A816E4B9B8846F60402934206D06B4B1C
:104308009B8845F21032934240F0C780674B4FF4C8
:10431800A0721A80654B4FF4F0725A80BDE0634B6F
:104328009B8845F21052934214D1604B4FF430529F
:104338001A815E4B4FF428525A815C4B4FF42C5231
:104348009A815A4B4FF4F0721A80584B4FF44872C6
:104358005A80A3E0554B9B8841F66312934211D1D2
:10436800524B2C221A81514B2B225A814F4B2A2215
:104378009A814E4B4FF4F0721A804C4B4FF44872AE
:104388005A808BE0494B22221A81484B20225A81BD
:10439800464B21229A8181E0444B01229A71434B7A
:1043A8004FF4A0721A80414BF0225A803F4B9B88F1
:1043B80049F24132934205D03C4B9B8845F210327A
:1043C800934209D1394B2C221A81384B2A225A811F
:1043D800364B2B229A814BE0344B9B8846F60402DD
:1043E800934209D1314B2C221A81304B2B225A810E
:1043F8002E4B2A229A813BE02C4B9B8845F2105287
:10440800934214D1294B4FF430521A81274B4FF461
:1044180028525A81254B4FF42C529A81234B4FF442
:1044280048721A80214B4FF4F0725A8020E01F4BDB
:104438009B8841F66312934211D11C4B2C221A819E
:104448001A4B2A225A81194B2B229A81174B4FF467
:1044580048721A80154B4FF4F0725A8008E0134BDB
:1044680022221A81114B21225A81104B20229A8133
:104478000E4B9B8846F60402934205D00B4B9B8853
:1044880045F21032934209D1084B4FF4F0721A806A
:10449800064B4FF4A0725A8000E000BF0020FFF7DF
:1044A8007FF800BF0837BD4680BD00BF98000020D8
:1044B80080B586B000AF904B9B698F4A43F00803E4
:1044C80093618D4B9B6903F008037B607B688A4B83
:1044D8009B69894A43F010039361874B9B6903F0FA
:1044E80010033B603B684FF4F863BB600123FB603B
:1044F80001233B6103237B6107F1080319467F48C9
:10450800FCF7D0FD4FF6FF73BB6007F108031946AF
:104518007B48FCF7C7FD3220FCF78AFB012100200D
:10452800FEF72CFD3220FCF783FB0020FEF750FD40
:1045380003461A46734B9A80724B9B88FE2B0BD905
:10454800704B9B884FF6FF72934205D06D4B9B884A
:10455800B3F5134F40F0C880D320FEF783FCFEF775
:10456800C9FCFEF7C7FCFEF7C5FC03461A46654BB7
:104578009A80644B9B881B029AB2624B9A80FEF722
:10458800B9FC03461A465F4B9B8813439AB25D4BAE
:104598009A805C4B9B8849F24132934200F0A48098
:1045A800BF20FEF75FFCFEF7A5FCFEF7A3FCFEF7B5
:1045B800A1FCFEF79FFC03461A46524B9A80514BCA
:1045C8009B881B029AB24F4B9A80FEF793FC0346D6
:1045D8001A464C4B9B8813439AB24A4B9A80494BD4
:1045E8009B8846F6040293427ED0D420FEF73AFC1C
:1045F800FEF780FCFEF77EFCFEF77CFC03461A46BD
:10460800404B9A803F4B9B881B029AB23D4B9A8045
:10461800FEF770FC03461A463A4B9B8813439AB23E
:10462800384B9A80374B9B8845F2103293425BD0C7
:104638004FF45A40FEF716FCFEF75CFC4FF45B4063
:10464800FEF710FCFEF756FC03461A462D4B9A80DF
:104658002C4B9B881B029AB22A4B9A804FF45C40E1
:10466800FEF700FCFEF746FC03461A46254B9B88DE
:1046780013439AB2234B9A80224B9B88B3F5004F81
:1046880003D1204B45F210529A801E4B9B8845F26D
:104698001052934228D0A120FEF7E4FBFEF72AFC33
:1046A80003461A46174B9A80FEF724FC03461A461F
:1046B800144B9A80134B9B881B029AB2114B9A8019
:1046C800FEF718FC03461A460E4B9B8813439AB212
:1046D8000C4B9A800B4B9B8845F26172934203D135
:1046E800084B41F663129A80064B9B8849F2413287
:1046F800934240F01F8107E0001002400010014083
:10470800000C014098000020CF20FEF7ABFB0020F2
:10471800FEF7CCFBC120FEF7C9FB3020FEF7C6FB35
:10472800ED20FEF79FFB6420FEF7C0FB0320FEF799
:10473800BDFB1220FEF7BAFB8120FEF7B7FBE8208D
:10474800FEF790FB8520FEF7B1FB1020FEF7AEFBCD
:104758007A20FEF7ABFBCB20FEF784FB3920FEF76F
:10476800A5FB2C20FEF7A2FB0020FEF79FFB3420C0
:10477800FEF79CFB0220FEF799FBF720FEF772FB81
:104788002020FEF793FBEA20FEF76CFB0020FEF7E3
:104798008DFB0020FEF78AFBC020FEF763FB1B2081
:1047A800FEF784FBC120FEF75DFB0120FEF77EFBD0
:1047B800C520FEF757FB3020FEF778FB3020FEF7C8
:1047C80075FBC720FEF74EFBB720FEF76FFB3620C0
:1047D800FEF748FB4820FEF769FB3A20FEF742FB4C
:1047E8005520FEF763FBB120FEF73CFB0020FEF7E7
:1047F8005DFB1A20FEF75AFBB620FEF733FB0A20B2
:10480800FEF754FBA220FEF751FBF220FEF72AFB2D
:104818000020FEF74BFB2620FEF724FB0120FEF7C5
:1048280045FBE020FEF71EFB0F20FEF73FFB2A208A
:10483800FEF73CFB2820FEF739FB0820FEF736FB85
:104848000E20FEF733FB0820FEF730FB5420FEF75E
:104858002DFBA920FEF72AFB4320FEF727FB0A20A1
:10486800FEF724FB0F20FEF721FB0020FEF71EFBBE
:104878000020FEF71BFB0020FEF718FB0020FEF7C8
:1048880015FBE120FEF7EEFA0020FEF70FFB1520DE
:10489800FEF70CFB1720FEF709FB0720FEF706FBC7
:1048A8001120FEF703FB0620FEF700FB2B20FEF786
:1048B800FDFA5620FEF7FAFA3C20FEF7F7FA052033
:1048C800FEF7F4FA1020FEF7F1FA0F20FEF7EEFAE1
:1048D8003F20FEF7EBFA3F20FEF7E8FA0F20FEF73D
:1048E800E5FA2B20FEF7BEFA0020FEF7DFFA0020DB
:1048F800FEF7DCFA0120FEF7D9FA3F20FEF7D6FAD8
:104908002A20FEF7AFFA0020FEF7D0FA0020FEF7C3
:10491800CDFA0020FEF7CAFAEF20FEF7C7FA1120F9
:10492800FEF7A0FA7820FCF783F92920FEF79AFA17
:1049380003F0D8BC584B9B8846F60402934240F0DB
:10494800AD801120FEF78EFA1420FCF771F9D02003
:10495800FEF788FA0720FEF7A9FA4220FEF7A6FA22
:104968001D20FEF7A3FAD120FEF77CFA0020FEF7FF
:104978009DFA1A20FEF79AFA0920FEF797FAD22034
:10498800FEF770FA0120FEF791FA2220FEF78EFA60
:10499800C020FEF767FA1020FEF788FA3B20FEF7E2
:1049A80085FA0020FEF782FA0220FEF77FFA11202E
:1049B800FEF77CFAC520FEF755FA0320FEF776FAD3
:1049C800C820FEF74FFA0020FEF770FA2520FEF700
:1049D8006DFA2120FEF76AFA0520FEF767FA002033
:1049E800FEF764FA0A20FEF761FA6520FEF75EFA20
:1049F8002520FEF75BFA7720FEF758FA5020FEF7DD
:104A080055FA0F20FEF752FA0020FEF74FFAF82069
:104A1800FEF728FA0120FEF749FAFE20FEF722FAEF
:104A28000020FEF743FA0220FEF740FA2020FEF7A6
:104A380019FA3620FEF716FA0820FEF737FA3A2058
:104A4800FEF710FA5520FEF731FA2B20FEF70AFA86
:104A58000020FEF72BFA0020FEF728FA0120FEF7C7
:104A680025FA3F20FEF722FA2A20FEF7FBF900205C
:104A7800FEF71CFA0020FEF719FA0120FEF716FAD5
:104A8800DF20FEF713FA7820FCF7D2F82920FEF78A
:104A9800E9F903F027BC00BF98000020034B9B886E
:104AA80045F21032934240F07C8701E098000020E4
:104AB800ED20FEF7D7F90120FEF7F8F9FE20FEF702
:104AC800F5F9EE20FEF7CEF9DE20FEF7EFF921200A
:104AD800FEF7ECF9F120FEF7C5F90120FEF7E6F93B
:104AE800DF20FEF7BFF91020FEF7E0F9C420FEF73B
:104AF800B9F98F20FEF7DAF9C620FEF7B3F90020DE
:104B0800FEF7D4F9E220FEF7D1F9E220FEF7CEF95C
:104B1800E220FEF7CBF9BF20FEF7A4F9AA20FEF7A2
:104B2800C5F9B020FEF79EF90D20FEF7BFF9002069
:104B3800FEF7BCF90D20FEF7B9F90020FEF7B6F92B
:104B48001120FEF7B3F90020FEF7B0F91920FEF79F
:104B5800ADF90020FEF7AAF92120FEF7A7F90020F9
:104B6800FEF7A4F92D20FEF7A1F90020FEF79EF923
:104B78003D20FEF79BF90020FEF798F95D20FEF72F
:104B880095F90020FEF792F95D20FEF78FF90020D5
:104B9800FEF78CF9B120FEF765F98020FEF786F95B
:104BA8000020FEF783F98B20FEF780F90020FEF73E
:104BB8007DF99620FEF77AF90020FEF777F9B22002
:104BC800FEF750F90020FEF771F90020FEF76EF9A4
:104BD8000220FEF76BF90020FEF768F90320FEF7C4
:104BE80065F90020FEF762F9B320FEF73BF90020D3
:104BF800FEF75CF90020FEF759F90020FEF756F998
:104C08000020FEF753F90020FEF750F90020FEF7C8
:104C18004DF90020FEF74AF90020FEF747F9002079
:104C2800FEF744F90020FEF741F90020FEF73EF9AF
:104C38000020FEF73BF90020FEF738F90020FEF7C8
:104C480035F90020FEF732F90020FEF72FF9002091
:104C5800FEF72CF90020FEF729F90020FEF726F9C7
:104C68000020FEF723F90020FEF720F90020FEF7C8
:104C78001DF90020FEF71AF90020FEF717F9B420F5
:104C8800FEF7F0F88B20FEF711F90020FEF70EF979
:104C98009620FEF70BF90020FEF708F9A120FEF791
:104CA80005F90020FEF702F9B520FEF7DBF802202F
:104CB800FEF7FCF80020FEF7F9F80320FEF7F6F8F7
:104CC8000020FEF7F3F80420FEF7F0F80020FEF7C6
:104CD800EDF8B620FEF7C6F80020FEF7E7F800204A
:104CE800FEF7E4F8B720FEF7BDF80020FEF7DEF87F
:104CF8000020FEF7DBF83F20FEF7D8F80020FEF78B
:104D0800D5F85E20FEF7D2F80020FEF7CFF8642031
:104D1800FEF7CCF80020FEF7C9F88C20FEF7C6F89D
:104D28000020FEF7C3F8AC20FEF7C0F80020FEF71D
:104D3800BDF8DC20FEF7BAF80020FEF7B7F87020BF
:104D4800FEF7B4F80020FEF7B1F89020FEF7AEF8B1
:104D58000020FEF7ABF8EB20FEF7A8F80020FEF7DE
:104D6800A5F8DC20FEF7A2F80020FEF79FF8B8208F
:104D7800FEF778F80020FEF799F80020FEF796F87D
:104D88000020FEF793F80020FEF790F80020FEF7C9
:104D98008DF80020FEF78AF80020FEF787F800203B
:104DA800FEF784F8BA20FEF75DF82420FEF77EF8B7
:104DB8000020FEF77BF80020FEF778F80020FEF7C9
:104DC80075F8C120FEF74EF82020FEF76FF8002096
:104DD800FEF76CF85420FEF769F80020FEF766F835
:104DE800FF20FEF763F80020FEF760F8C220FEF708
:104DF80039F80A20FEF75AF80020FEF757F8042081
:104E0800FEF754F80020FEF751F8C320FEF72AF801
:104E18003C20FEF74BF80020FEF748F83A20FEF752
:104E280045F80020FEF742F83920FEF73FF8002049
:104E3800FEF73CF83720FEF739F80020FEF736F881
:104E48003C20FEF733F80020FEF730F83620FEF756
:104E58002DF80020FEF72AF83220FEF727F8002068
:104E6800FEF724F82F20FEF721F80020FEF71EF8A1
:104E78002C20FEF71BF80020FEF718F82920FEF773
:104E880015F80020FEF712F82620FEF70FF800208C
:104E9800FEF70CF82420FEF709F80020FEF706F8C4
:104EA8002420FEF703F80020FEF700F82320FDF782
:104EB800FDFF0020FDF7FAFF3C20FDF7F7FF00207B
:104EC800FDF7F4FF3620FDF7F1FF0020FDF7EEFFB8
:104ED8003220FDF7EBFF0020FDF7E8FF2F20FDF75C
:104EE800E5FF0020FDF7E2FF2C20FDF7DFFF0020A3
:104EF800FDF7DCFF2920FDF7D9FF0020FDF7D6FFDD
:104F08002620FDF7D3FF0020FDF7D0FF2420FDF772
:104F1800CDFF0020FDF7CAFF2420FDF7C7FF0020C2
:104F2800FDF7C4FF2320FDF7C1FF0020FDF7BEFFFA
:104F3800C420FDF797FF6220FDF7B8FF0020FDF7BA
:104F4800B5FF0520FDF7B2FF0020FDF7AFFF842075
:104F5800FDF7ACFF0020FDF7A9FFF020FDF7A6FF45
:104F68000020FDF7A3FF1820FDF7A0FF0020FDF7A4
:104F78009DFFA420FDF79AFF0020FDF797FF18205A
:104F8800FDF794FF0020FDF791FF5020FDF78EFFFD
:104F98000020FDF78BFF0C20FDF788FF0020FDF7B0
:104FA80085FF1720FDF782FF0020FDF77FFF952082
:104FB800FDF77CFF0020FDF779FFF320FDF776FF72
:104FC8000020FDF773FFE620FDF770FF0020FDF7D6
:104FD8006DFFC520FDF746FF3220FDF767FF002073
:104FE800FDF764FF4420FDF761FF0020FDF75EFF39
:104FF8006520FDF75BFF0020FDF758FF7620FDF7E1
:1050080055FF0020FDF752FF8820FDF74FFF0020D5
:10501800FDF74CFFC620FDF725FF2020FDF746FFD2
:105028000020FDF743FF1720FDF740FF0020FDF7A4
:105038003DFF0120FDF73AFF0020FDF737FFC720AD
:10504800FDF710FF0020FDF731FF0020FDF72EFFD0
:105058000020FDF72BFF0020FDF728FFC820FDF7F3
:1050680001FF0020FDF722FF0020FDF71FFF0020B1
:10507800FDF71CFF0020FDF719FFC920FDF7F2FE20
:105088000020FDF713FF0020FDF710FF0020FDF7BB
:105098000DFF0020FDF70AFF0020FDF707FF0020A5
:1050A800FDF704FF0020FDF701FF0020FDF7FEFEDD
:1050B8000020FDF7FBFE0020FDF7F8FE0020FDF7BD
:1050C800F5FE0020FDF7F2FE0020FDF7EFFE0020C0
:1050D800FDF7ECFE0020FDF7E9FE0020FDF7E6FEF7
:1050E800E020FDF7BFFE1620FDF7E0FE0020FDF7EB
:1050F800DDFE1C20FDF7DAFE0020FDF7D7FE21209B
:10510800FDF7D4FE0020FDF7D1FE3620FDF7CEFED8
:105118000020FDF7CBFE4620FDF7C8FE0020FDF776
:10512800C5FE5220FDF7C2FE0020FDF7BFFE642039
:10513800FDF7BCFE0020FDF7B9FE7A20FDF7B6FEAC
:105148000020FDF7B3FE8B20FDF7B0FE0020FDF731
:10515800ADFE9920FDF7AAFE0020FDF7A7FEA820C6
:10516800FDF7A4FE0020FDF7A1FEB920FDF79EFE85
:105178000020FDF79BFEC420FDF798FE0020FDF7F8
:1051880095FECA20FDF792FE0020FDF78FFED22083
:10519800FDF78CFE0020FDF789FED920FDF786FE7D
:1051A8000020FDF783FEE020FDF780FE0020FDF7DC
:1051B8007DFEF320FDF77AFE0020FDF777FEE12063
:1051C800FDF750FE1620FDF771FE0020FDF76EFE7C
:1051D8001C20FDF76BFE0020FDF768FE2220FDF77E
:1051E80065FE0020FDF762FE3620FDF75FFE002019
:1051F800FDF75CFE4520FDF759FE0020FDF756FE41
:105208005220FDF753FE0020FDF750FE6420FDF705
:105218004DFE0020FDF74AFE7A20FDF747FE0020EC
:10522800FDF744FE8B20FDF741FE0020FDF73EFE12
:105238009920FDF73BFE0020FDF738FEA820FDF77A
:1052480035FE0020FDF732FEB920FDF72FFE0020C5
:10525800FDF72CFEC420FDF729FE0020FDF726FEF1
:10526800CA20FDF723FE0020FDF720FED220FDF71F
:105278001DFE0020FDF71AFED820FDF717FE0020BE
:10528800FDF714FEE020FDF711FE0020FDF70EFEED
:10529800F320FDF70BFE0020FDF708FEE220FDF7E6
:1052A800E1FD0520FDF702FE0020FDF7FFFD0B20C4
:1052B800FDF7FCFD0020FDF7F9FD1B20FDF7F6FDCD
:1052C8000020FDF7F3FD3420FDF7F0FD0020FDF789
:1052D800EDFD4420FDF7EAFD0020FDF7E7FD4F2036
:1052E800FDF7E4FD0020FDF7E1FD6120FDF7DEFD9F
:1052F8000020FDF7DBFD7920FDF7D8FD0020FDF744
:10530800D5FD8820FDF7D2FD0020FDF7CFFD9720C1
:10531800FDF7CCFD0020FDF7C9FDA620FDF7C6FD71
:105328000020FDF7C3FDB720FDF7C0FD0020FDF705
:10533800BDFDC220FDF7BAFD0020FDF7B7FDC7206F
:10534800FDF7B4FD0020FDF7B1FDD120FDF7AEFD5E
:105358000020FDF7ABFDD620FDF7A8FD0020FDF7E6
:10536800A5FDDD20FDF7A2FD0020FDF79FFDF32040
:10537800FDF79CFD0020FDF799FDE320FDF772FD88
:105388000520FDF793FD0020FDF790FD0A20FDF7AD
:105398008DFD0020FDF78AFD1C20FDF787FD00200C
:1053A800FDF784FD3320FDF781FD0020FDF77EFD2C
:1053B8004420FDF77BFD0020FDF778FD5020FDF728
:1053C80075FD0020FDF772FD6220FDF76FFD0020DE
:1053D800FDF76CFD7820FDF769FD0020FDF766FDFF
:1053E8008820FDF763FD0020FDF760FD9720FDF79D
:1053F8005DFD0020FDF75AFDA620FDF757FD0020B2
:10540800FDF754FDB720FDF751FD0020FDF74EFDD7
:10541800C220FDF74BFD0020FDF748FDC720FDF732
:1054280045FD0020FDF742FDD120FDF73FFD00209E
:10543800FDF73CFDD520FDF739FD0020FDF736FDD1
:10544800DD20FDF733FD0020FDF730FDF320FDF7EB
:105458002DFD0020FDF72AFDE420FDF703FD0120C6
:10546800FDF724FD0020FDF721FD0120FDF71EFDBD
:105478000020FDF71BFD0220FDF718FD0020FDF7B9
:1054880015FD2A20FDF712FD0020FDF70FFD3C2039
:10549800FDF70CFD0020FDF709FD4B20FDF706FD8B
:1054A8000020FDF703FD5D20FDF700FD0020FDF75E
:1054B800FDFC7420FDF7FAFC0020FDF7F7FC8420C2
:1054C800FDF7F4FC0020FDF7F1FC9320FDF7EEFC5E
:1054D8000020FDF7EBFCA220FDF7E8FC0020FDF71B
:1054E800E5FCB320FDF7E2FC0020FDF7DFFCBE2061
:1054F800FDF7DCFC0020FDF7D9FCC420FDF7D6FC45
:105508000020FDF7D3FCCD20FDF7D0FC0020FDF7EF
:10551800CDFCD320FDF7CAFC0020FDF7C7FCDD2039
:10552800FDF7C4FC0020FDF7C1FCF320FDF7BEFC2D
:105538000020FDF7BBFCE520FDF794FC0020FDF7FB
:10554800B5FC0020FDF7B2FC0020FDF7AFFC002001
:10555800FDF7ACFC0220FDF7A9FC0020FDF7A6FC36
:105568002920FDF7A3FC0020FDF7A0FC3C20FDF757
:105578009DFC0020FDF79AFC4B20FDF797FC0020CE
:10558800FDF794FC5D20FDF791FC0020FDF78EFCF3
:105598007420FDF78BFC0020FDF788FC8420FDF7C4
:1055A80085FC0020FDF782FC9320FDF77FFC00209E
:1055B800FDF77CFCA220FDF779FC0020FDF776FCC6
:1055C800B320FDF773FC0020FDF770FCBE20FDF74B
:1055D8006DFC0020FDF76AFCC420FDF767FC002085
:1055E800FDF764FCCD20FDF761FC0020FDF75EFCB3
:1055F800D320FDF75BFC0020FDF758FCDC20FDF70D
:1056080055FC0020FDF752FCF320FDF74FFC00206D
:10561800FDF74CFCE620FDF725FC1120FDF746FCC4
:105628000020FDF743FC3420FDF740FC0020FDF787
:105638003DFC5620FDF73AFC0020FDF737FC7620AC
:10564800FDF734FC0020FDF731FC7720FDF72EFC38
:105658000020FDF72BFC6620FDF728FC0020FDF755
:1056680025FC8820FDF722FC0020FDF71FFC99206F
:10567800FDF71CFC0020FDF719FCBB20FDF716FC0C
:105688000020FDF713FC9920FDF710FC0020FDF722
:105698000DFC6620FDF70AFC0020FDF707FC5520ED
:1056A800FDF704FC0020FDF701FC5520FDF7FEFB8B
:1056B8000020FDF7FBFB4520FDF7F8FB0020FDF778
:1056C800F5FB4320FDF7F2FB0020FDF7EFFB44203C
:1056D800FDF7ECFB0020FDF7E9FBE720FDF7C2FB37
:1056E8003220FDF7E3FB0020FDF7E0FB5520FDF736
:1056F800DDFB0020FDF7DAFB7620FDF7D7FB002065
:10570800FDF7D4FB6620FDF7D1FB0020FDF7CEFBAB
:105718006720FDF7CBFB0020FDF7C8FB6720FDF7EE
:10572800C5FB0020FDF7C2FB8720FDF7BFFB00206B
:10573800FDF7BCFB9920FDF7B9FB0020FDF7B6FB90
:10574800BB20FDF7B3FB0020FDF7B0FB9920FDF768
:10575800ADFB0020FDF7AAFB7720FDF7A7FB002093
:10576800FDF7A4FB4420FDF7A1FB0020FDF79EFBFD
:105778005620FDF79BFB0020FDF798FB2320FDF743
:1057880095FB0020FDF792FB3320FDF78FFB0020EF
:10579800FDF78CFB4520FDF789FB0020FDF786FB14
:1057A800E820FDF75FFB0020FDF780FB0020FDF7F8
:1057B8007DFB9920FDF77AFB0020FDF777FB87201A
:1057C800FDF774FB0020FDF771FB8820FDF76EFBE9
:1057D8000020FDF76BFB7720FDF768FB0020FDF745
:1057E80065FB6620FDF762FB0020FDF75FFB882064
:1057F800FDF75CFB0020FDF759FBAA20FDF756FBDF
:105808000020FDF753FBBB20FDF750FB0020FDF700
:105818004DFB9920FDF74AFB0020FDF747FB66206A
:10582800FDF744FB0020FDF741FB5520FDF73EFB4B
:105838000020FDF73BFB5520FDF738FB0020FDF766
:1058480035FB4420FDF732FB0020FDF72FFB4420F9
:10585800FDF72CFB0020FDF729FB5520FDF726FB63
:105868000020FDF723FBE920FDF7FCFAAA20FDF74D
:105878001DFB0020FDF71AFB0020FDF717FB002099
:10588800FDF714FB0020FDF7EDFAAA20FDF70EFB4B
:10589800CF20FDF7E7FA0020FDF708FB0020FDF711
:1058A80005FB0020FDF702FB0020FDF7FFFA0020B2
:1058B800FDF7FCFA0020FDF7F9FA0020FDF7F6FAEB
:1058C8000020FDF7F3FA0020FDF7F0FA0020FDF7BD
:1058D800EDFA0020FDF7EAFA0020FDF7E7FA0020CC
:1058E800FDF7E4FA0020FDF7E1FA0020FDF7DEFA03
:1058F8000020FDF7DBFA0020FDF7D8FAF020FDF7CD
:10590800B1FA0020FDF7D2FA5020FDF7CFFA0020B7
:10591800FDF7CCFA0020FDF7C9FA0020FDF7C6FA1A
:10592800F320FDF79FFA0020FDF7C0FAF920FDF7F4
:1059380099FA0620FDF7BAFA1020FDF7B7FA2920E0
:10594800FDF7B4FA0020FDF7B1FA3A20FDF78AFA1C
:105958005520FDF7ABFA1120FDF784FA6420FBF718
:1059680067F92920FDF77EFA3520FDF77BFA00203C
:10597800FDF79CFA5120FDF775FAFF20FDF796FA1E
:105988005320FDF76FFA2C20FDF790FA5520FDF70C
:1059980069FA8220FDF78AFA2C20FDF763FA02F0F3
:1059A800A1BC044B9B8845F21052934240F0828779
:1059B80002E000BF9800002055214FF47040FDF729
:1059C800DDFAAA214FF20100FDF7D8FA52214FF271
:1059D8000200FDF7D3FA08214FF20300FDF7CEFAD3
:1059E80001214FF20400FDF7C9FA0D214FF43040B0
:1059F800FDF7C4FA0D214BF20100FDF7BFFA0D21A6
:105A08004BF20200FDF7BAFA34214FF43640FDF7A5
:105A1800B5FA34214BF20160FDF7B0FA34214BF2AC
:105A28000260FDF7ABFA0D214FF43140FDF7A6FAFD
:105A38000D214BF20110FDF7A1FA0D214BF20210D6
:105A4800FDF79CFA34214FF43740FDF797FA3421DB
:105A58004BF20170FDF792FA34214BF20270FDF718
:105A68008DFA00214FF43240FDF788FA00214BF2FD
:105A78000120FDF783FA00214BF20220FDF77EFAA0
:105A880024214FF43840FDF779FA24214BF6010020
:105A9800FDF774FA24214BF60200FDF76FFA012195
:105AA8004FF43F40FDF76AFA0F214FF43340FDF7FA
:105AB80065FA0F214BF20130FDF760FA0F214BF226
:105AC8000230FDF75BFA34214FF43940FDF756FAFE
