:020000040800F2
:1000000000C00020798A00082D8700083987000881
:100010003F870008458700084B8700080000000064
:1000200000000000000000000000000051870008F0
:100030005D870008000000006987000875870008D8
:10004000C18A0008C18A0008C18A0008C18A000864
:10005000C18A0008C18A000881870008C18A000897
:10006000C18A0008C18A0008C18A0008C18A000844
:10007000C18A0008C18A0008C18A0008C18A000834
:10008000C18A0008C18A0008C18A0008C18A000824
:10009000C18A0008C18A0008C18A00088F87000849
:1000A000C18A0008C18A0008C18A0008C18A000804
:1000B000C18A00089D870008C18A0008C18A00081B
:1000C000C18A0008C18A0008C18A0008C18A0008E4
:1000D000C18A0008B1870008C18A0008C18A0008E7
:1000E000C5870008C18A0008C18A0008C18A0008C3
:1000F000C18A0008C18A0008C18A0008C18A0008B4
:10010000C18A0008C18A0008C18A0008C18A0008A3
:10011000C18A0008C18A0008C18A0008C18A000893
:10012000C18A0008C18A0008C18A0008C18A000883
:1001300000000000000000000000000000000000BF
:1001400000000000000000000000000000000000AF
:10015000000000000000000000000000000000009F
:10016000000000000000000000000000000000008F
:10017000000000000000000000000000000000007F
:10018000000000000000000000000000000000006F
:10019000000000000000000000000000000000005F
:1001A000000000000000000000000000000000004F
:1001B000000000000000000000000000000000003F
:1001C000000000000000000000000000000000002F
:1001D000000000000000000000000000000000001F
:0401E0005FF8E0F1F3
:1001E80010B5054C237833B9044B13B10448AFF369
:1001F80000800123237010BD700000200000000063
:1002080054A7000808B5034B1BB103490348AFF3D3
:10021800008008BD000000007400002054A70008FA
:1002280081F0004102E000BF83F0004330B54FEA9F
:1002380041044FEA430594EA050F08BF90EA020F0C
:100248001FBF54EA000C55EA020C7FEA645C7FEA9F
:10025800655C00F0E2804FEA5454D4EB5555B8BFC2
:100268006D420CDD2C4480EA020281EA030382EA33
:10027800000083EA010180EA020281EA0303362DC5
:1002880088BF30BD11F0004F4FEA01314FF4801C98
:100298004CEA113102D0404261EB410113F0004FAA
:1002A8004FEA03334CEA133302D0524263EB430361
:1002B80094EA050F00F0A780A4F10104D5F1200EFF
:1002C8000DDB02FA0EFC22FA05F2801841F100015A
:1002D80003FA0EF2801843FA05F359410EE0A5F12E
:1002E80020050EF1200E012A03FA0EFC28BF4CF05F
:1002F800020C43FA05F3C01851EBE37101F0004515
:1003080007D54FF0000EDCF1000C7EEB00006EEB21
:100318000101B1F5801F1BD3B1F5001F0CD34908AB
:100328005FEA30004FEA3C0C04F101044FEA445202
:1003380012F5800F80F09A80BCF1004F08BF5FEA89
:10034800500C50F1000041EB045141EA050130BD69
:100358005FEA4C0C404141EB0101013C28BFB1F57B
:10036800801FE9D291F0000F04BF01460020B1FAC6
:1003780081F308BF2033A3F10B03B3F120020CDA99
:100388000C3208DD02F1140CC2F10C0201FA0CF077
:1003980021FA02F10CE002F11402D8BFC2F1200CDC
:1003A80001FA02F120FA0CFCDCBF41EA0C01904092
:1003B800E41AA2BF01EB0451294330BD6FEA0404DB
:1003C8001F3C1CDA0C340EDC04F11404C4F12002C6
:1003D80020FA04F001FA02F340EA030021FA04F3D8
:1003E80045EA030130BDC4F10C04C4F1200220FA2F
:1003F80002F001FA04F340EA0300294630BD21FA6D
:1004080004F0294630BD94F0000F83F4801306BF32
:1004180081F480110134013D4EE77FEA645C18BF26
:100428007FEA655C29D094EA050F08BF90EA020FBD
:1004380005D054EA000C04BF1946104630BD91EAB5
:10044800030F1EBF0021002030BD5FEA545C05D1B8
:100458004000494128BF41F0004130BD14F58004F7
:100468003CBF01F5801130BD01F0004545F0FE416B
:1004780041F470014FF0000030BD7FEA645C1ABFA0
:10048800194610467FEA655C1CBF0B46024650EAD7
:10049800013406BF52EA033591EA030F41F4002103
:1004A80030BD00BF90F0000F04BF0021704730B589
:1004B8004FF4806404F132044FF000054FF000015E
:1004C80050E700BF90F0000F04BF0021704730B51F
:1004D8004FF4806404F1320410F0004548BF4042F4
:1004E8004FF000013EE700BF42004FEAE2014FEA49
:1004F80031014FEA02701FBF12F07F4393F07F4F24
:1005080081F06051704732F07F4208BF704793F026
:100518007F4F04BF41F40021704730B54FF4607439
:1005280001F0004521F000411CE700BF50EA01023C
:1005380008BF704730B54FF000050AE050EA0102E5
:1005480008BF704730B511F0004502D5404261EB55
:1005580041014FF4806404F132045FEA915C3FF496
:10056800D8AE4FF003025FEADC0C18BF03325FEA33
:10057800DC0C18BF033202EBDC02C2F1200300FAE4
:1005880003FC20FA02F001FA03FE40EA0E0021FA09
:1005980002F11444BDE600BF70B54FF0FF0C4CF4F7
:1005A800E06C1CEA11541DBF1CEA135594EA0C0FA9
:1005B80095EA0C0F00F0DEF82C4481EA030621EAE4
:1005C8004C5123EA4C5350EA013518BF52EA03351F
:1005D80041F4801143F4801338D0A0FB02CE4FF0D1
:1005E8000005E1FB02E506F00042E0FB03E54FF001
:1005F8000006E1FB03569CF0000F18BF4EF0010EF9
:10060800A4F1FF04B6F5007F64F5407404D25FEAF4
:100618004E0E6D4146EB060642EAC62141EA5551A7
:100628004FEAC52040EA5E504FEACE2EB4F1FD0CE9
:1006380088BFBCF5E06F1ED8BEF1004F08BF5FEA67
:10064800500E50F1000041EB045170BD06F0004619
:1006580046EA010140EA020081EA0301B4EB5C04C6
:10066800C2BFD4EB0C0541EA045170BD41F48011BE
:100678004FF0000E013C00F3AB8014F1360FDEBFE3
:10068800002001F0004170BDC4F10004203C35DABF
:100698000C341BDC04F11404C4F1200500FA05F342
:1006A80020FA04F001FA05F240EA020001F00042E3
:1006B80021F0004110EBD37021FA04F642EB060159
:1006C8005EEA430E08BF20EAD37070BDC4F10C0483
:1006D800C4F1200500FA04F320FA05F001FA04F247
:1006E80040EA020001F0004110EBD37041F1000133
:1006F8005EEA430E08BF20EAD37070BDC4F120053E
:1007080000FA05F24EEA020E20FA04F301FA05F2A5
:1007180043EA020321FA04F001F0004121FA04F24D
:1007280020EA020000EBD3705EEA430E08BF20EA1D
:10073800D37070BD94F0000F0FD101F00046400057
:1007480041EB010111F4801F08BF013CF7D041EAD9
:10075800060195F0000F18BF704703F000465200DD
:1007680043EB030313F4801F08BF013DF7D043EAAE
:100778000603704794EA0C0F0CEA135518BF95EA64
:100788000C0F0CD050EA410618BF52EA4306D1D1EB
:1007980081EA030101F000414FF0000070BD50EA0A
:1007A800410606BF1046194652EA430619D094EA94
:1007B8000C0F02D150EA013613D195EA0C0F05D17E
:1007C80052EA03361CBF104619460AD181EA0301D2
:1007D80001F0004141F0FE4141F470014FF000008A
:1007E80070BD41F0FE4141F4780170BD70B54FF025
:1007F800FF0C4CF4E06C1CEA11541DBF1CEA1355A5
:1008080094EA0C0F95EA0C0F00F0A7F8A4EB050486
:1008180081EA030E52EA03354FEA013100F088807D
:100828004FEA03334FF0805545EA131343EA126346
:100838004FEA022245EA111545EA10654FEA0026FB
:100848000EF000419D4208BF964244F1FD0404F5B4
:10085800407402D25B084FEA3202B61A65EB030510
:100868005B084FEA32024FF480104FF4002CB6EBCD
:10087800020E75EB030E22BFB61A754640EA0C004D
:100888005B084FEA3202B6EB020E75EB030E22BF8D
:10089800B61A754640EA5C005B084FEA3202B6EBCE
:1008A800020E75EB030E22BFB61A754640EA9C008D
:1008B8005B084FEA3202B6EB020E75EB030E22BF5D
:1008C800B61A754640EADC0055EA060E18D04FEA1B
:1008D800051545EA16754FEA06164FEAC30343EABB
:1008E80052734FEAC2025FEA1C1CC0D111F4801F88
:1008F8000BD141EA00014FF000004FF0004CB6E781
:1009080011F4801F04BF01430020B4F1FD0C88BF1F
:10091800BCF5E06F3FF6AFAEB5EB030C04BFB6EB2A
:10092800020C5FEA500C50F1000041EB045170BD1D
:100938000EF0004E4EEA113114EB5C04C2BFD4EB4A
:100948000C0541EA045170BD41F480114FF0000ECE
:10095800013C90E645EA060E8DE60CEA135594EA4A
:100968000C0F08BF95EA0C0F3FF43BAF94EA0C0F4D
:100978000AD150EA01347FF434AF95EA0C0F7FF4C2
:1009880025AF104619462CE795EA0C0F06D152EA16
:1009980003353FF4FDAE1046194622E750EA4106FA
:1009A80018BF52EA43067FF4C5AE50EA41047FF40B
:1009B8000DAF52EA43057FF4EBAE12E74FEA41026E
:1009C80012F5001215D211D56FF47873B3EB625299
:1009D80012D94FEAC12343F0004343EA505311F0C0
:1009E800004F23FA02F018BF404270474FF0000052
:1009F800704750EA013005D111F0004008BF6FF090
:100A0800004070474FF00000704700BF4A0011D205
:100A180012F5001211D20DD56FF47873B3EB625250
:100A28000ED44FEAC12343F0004343EA505323FA5C
:100A380002F070474FF00000704750EA013002D1D1
:100A48004FF0FF3070474FF000007047034613F82F
:100A5800012B002AFBD1181A013870474FF0FF3CD0
:100A680006E000BF4FF0010C02E000BF4FF0010CA0
:100A78004DF804CD4FEA410C7FEA6C5C4FEA430C19
:100A880018BF7FEA6C5C1BD001B050EA410C0CBF68
:100A980052EA430C91EA030F02BF90EA020F0020CA
:100AA800704710F1000F91EA030F58BF994208BF31
:100AB80090422CBFD8176FEAE37040F001007047EE
:100AC8004FEA410C7FEA6C5C02D150EA013C07D145
:100AD8004FEA430C7FEA6C5CD6D152EA033CD3D090
:100AE8005DF8040B704700BF8446104662468C468A
:100AF8001946634600E000BF01B5FFF7B7FF0028BD
:100B080048BF10F1000F01BD4DF808EDFFF7F4FFE5
:100B18000CBF012000205DF808FB00BF4DF808ED70
:100B2800FFF7EAFF34BF012000205DF808FB00BF93
:100B38004DF808EDFFF7E0FF94BF012000205DF8B5
:100B480008FB00BF4DF808EDFFF7CEFF94BF01206A
:100B580000205DF808FB00BF4DF808EDFFF7C4FF63
:100B680034BF012000205DF808FB00BF80B500AF4E
:100B7800084B1B68074A43F010031360032000F07A
:100B880047F9002000F008F807F09AFD00231846FE
:100B980080BD00BF0020024080B582B000AF786001
:100BA800124B1A68124B1B7819464FF47A73B3FB31
:100BB800F1F3B2FBF3F3184600F05FF90346002B9C
:100BC80001D001230EE07B680F2B0AD80022796838
:100BD8004FF0FF3000F027F9064A7B6813600023C6
:100BE80000E0012318460837BD4680BD08000020F4
:100BF800040000200000002080B400AF054B1B78E3
:100C08001A46054B1B681344034A136000BFBD46D0
:100C180080BC7047040000208C00002080B400AF26
:100C2800024B1B681846BD4680BC70478C000020EC
:100C380080B584B000AF7860FFF7F0FFB8607B68DC
:100C4800FB60FB68B3F1FF3F05D00A4B1B781A46DF
:100C5800FB681344FB6000BFFFF7E0FF0246BB6878
:100C6800D31AFA689A42F7D800BF00BF1037BD46BA
:100C780080BD00BF0400002080B485B000AF78605C
:100C88007B6803F00703FB600C4BDB68BB60BA684A
:100C98004FF6FF031340BB60FB681A02BB6813439F
:100CA80043F0BF6343F40033BB60044ABB68D360BE
:100CB80000BF1437BD4680BC704700BF00ED00E0A0
:100CC80080B400AF044BDB681B0A03F00703184627
:100CD800BD4680BC704700BF00ED00E080B483B023
:100CE80000AF0346FB7197F90730002B0BDBFB794C
:100CF80003F01F02064997F907305B09012000FA43
:100D080002F241F8232000BF0C37BD4680BC704773
:100D180000E100E080B483B000AF03463960FB71A6
:100D280097F90730002B0ADB3B68DAB20C4997F9D0
:100D380007301201D2B20B4483F800230AE03B6863
:100D4800DAB20849FB7903F00F03043B1201D2B26F
:100D58000B441A7600BF0C37BD4680BC704700BFF5
:100D680000E100E000ED00E080B489B000AFF86079
:100D7800B9607A60FB6803F00703FB61FB69C3F1A4
:100D88000703042B28BF0423BB61FB690433062B2C
:100D980002D9FB69033B00E000237B614FF0FF327F
:100DA800BB6902FA03F3DA43BB681A407B699A40CD
:100DB8004FF0FF317B6901FA03F3D9437B680B409D
:100DC800134318462437BD4680BC704780B582B0AF
:100DD80000AF78607B68013BB3F1807F01D30123CA
:100DE8000FE00A4A7B68013B53600F214FF0FF3048
:100DF800FFF790FF054B00229A60044B07221A6008
:100E0800002318460837BD4680BD00BF10E000E04B
:100E180080B582B000AF78607868FFF72DFF00BF1B
:100E28000837BD4680BD80B586B000AF0346B960BF
:100E38007A60FB7300237B61FFF742FF78617A6871
:100E4800B9687869FFF790FF024697F90F301146A5
:100E58001846FFF75FFF00BF1837BD4680BD80B555
:100E680082B000AF0346FB7197F907301846FFF7C9
:100E780035FF00BF0837BD4680BD80B582B000AFE2
:100E880078607868FFF7A2FF034618460837BD4622
:100E980080BD000080B584B000AF78600023FB738C
:100EA8007B6893F82130022B05D07B6804229A6373
:100EB8000123FB73D6E07B681B681A687B681B6894
:100EC80022F00E021A607B681B681A687B681B6830
:100ED80022F001021A607B681B681A46644B9A422A
:100EE80058D97B681B68634A93424FD07B681B685C
:100EF800614A934248D07B681B68604A934240D05D
:100F08007B681B685E4A934238D07B681B685D4AE1
:100F1800934230D07B681B685B4A934228D07B6839
:100F28001B68534A934220D07B681B68574A9342F8
:100F380019D07B681B68564A934212D07B681B689D
:100F4800544A93420AD07B681B68534A934202D1A1
:100F58004FF480531BE04FF4803318E04FF4807354
:100F680015E0102313E0012311E04FF080730EE029
:100F78004FF480130BE04FF4803308E04FF48053B4
:100F880005E04FF4807302E0102300E00123434A98
:100F9800536057E07B681B68364A93424FD07B68A2
:100FA8001B68354A934248D07B681B68334A934292
:100FB80040D07B681B68324A934238D07B681B68F4
:100FC800304A934230D07B681B682F4A934228D01E
:100FD8007B681B68264A934220D07B681B682B4A93
:100FE800934219D07B681B68294A934212D07B68C8
:100FF8001B68284A93420AD07B681B68264A93429A
:1010080002D14FF480531BE04FF4803318E04FF4C3
:10101800807315E0102313E0012311E04FF0807373
:101028000EE04FF480130BE04FF4803308E04FF4E8
:10103800805305E04FF4807302E0102300E00123A1
:10104800174A53607B68012283F821207B680022BD
:1010580083F820207B685B6B002B03D07B685B6B7D
:1010680078689847FB7B18461037BD4680BD00BF9F
:1010780080000240080002401C000240300002408C
:1010880044000240580002406C000240080402403C
:101098001C040240300402404404024000040240A0
:1010A8000000024080B48BB000AF78603960002344
:1010B8007B6200233B6279E101227B6A02FA03F337
:1010C800FB613B681B68FA691340BB61BA69FB693D
:1010D8009A4240F068813B685B68A04A93425ED0C0
:1010E8009E4A934275D89E4A934258D09C4A93424E
:1010F8006FD89C4A934252D09A4A934269D89A4AE6
:1011080093424CD0984A934263D8984A934246D027
:10111800964A93425DD8122B2AD8122B59D801A28D
:1011280052F823F0A7110008811100089311000854
:10113800D5110008DB110008DB110008DB110008DD
:10114800DB110008DB110008DB110008DB110008C7
:10115800DB110008DB110008DB110008DB110008B7
:10116800DB110008DB110008891100089D11000837
:101178007F4A934213D02CE03B68DB683B6229E04E
:101188003B68DB6804333B6224E03B68DB68083378
:101198003B621FE03B68DB680C333B621AE03B684C
:1011A8009B68002B02D104233B6213E03B689B68D9
:1011B800012B05D108233B627B68FA691A6109E0B3
:1011C80008233B627B68FA695A6103E000233B62AB
:1011D80000E000BFBB69FF2B01D87B6801E07B689A
:1011E80004337B61BB69FF2B02D87B6A9B0002E05A
:1011F8007B6A083B9B003B617B691A680F213B694E
:1012080001FA03F3DB431A40396A3B6901FA03F335
:101218001A437B691A603B685B6803F08053002BB4
:1012280000F0C180534B9B69524A43F0010393611C
:10123800504B9B6903F00103BB60BB684E4A7B6A55
:101248009B08023352F82330FB607B6A03F00303E8
:101258009B000F2202FA03F3DB43FA681340FB609A
:101268007B68464A93421FD07B68454A934219D00F
:101278007B68444A934213D07B68434A93420DD01B
:101288007B68424A934207D07B68414A934201D126
:1012980005230AE0062308E0042306E0032304E00C
:1012A800022302E0012300E000237A6A02F003022D
:1012B80092009340FA681343FB602F497B6A9B08AE
:1012C8000233FA6841F823203B685B6803F48033F3
:1012D800002B06D02F4B1A682E49BB6913430B60AD
:1012E80006E02C4B1A68BB69DB432A4913400B60A4
:1012F8003B685B6803F40033002B06D0254B5A6823
:101308002449BB6913434B6006E0224B5A68BB690A
:10131800DB43204913404B603B685B6803F4801350
:10132800002B06D01B4B9A681A49BB6913438B6084
:1013380006E0184B9A68BB69DB43164913408B607B
:101348003B685B6803F40013002B25D0114BDA6867
:101358001049BB691343CB6025E000BF0000321081
:1013680000003110000022100000211000001210AF
:101378000000111000100240000001400008014068
:10138800000C014000100140001401400018014009
:10139800001C0140000401400B4BDA68BB69DB43C9
:1013A80009491340CB607B6A01337B623B681A684A
:1013B8007B6A22FA03F3002B7FF47EAE00BF00BFE6
:1013C8002C37BD4680BC70470004014080B485B00E
:1013D80000AF78600B467B807B689A687B881340F7
:1013E800002B02D00123FB7301E00023FB73FB7B7E
:1013F80018461437BD4680BC704780B483B000AF30
:1014080078600B467B8013467B707B78002B03D07B
:101418007A887B681A6103E07B881A047B681A6102
:1014280000BF0C37BD4680BC7047000080B582B055
:1014380000AF0346FB80084B5A69FB881340002B1A
:1014480006D0054AFB885361FB88184607F0DAF88E
:1014580000BF0837BD4680BD0004014080B586B096
:1014680000AF78607B68002B01D101236CE27B68B8
:101478001B6803F00103002B00F08780924B5B6828
:1014880003F00C03042B0CD08F4B5B6803F00C03A8
:10149800082B12D18C4B5B6803F48033B3F5803F83
:1014A8000BD1894B1B6803F40033002B6CD07B688D
:1014B8005B68002B68D1012346E27B685B68B3F563
:1014C800803F06D1804B1B687F4A43F4803313600A
:1014D8002EE07B685B68002B0CD17B4B1B687A4A3B
:1014E80023F480331360784B1B68774A23F48023F6
:1014F80013601DE07B685B68B3F5A02F0CD1724BBD
:101508001B68714A43F4802313606F4B1B686E4A53
:1015180043F4803313600BE06B4B1B686A4A23F477
:1015280080331360684B1B68674A23F48023136079
:101538007B685B68002B13D0FFF770FB386108E00D
:10154800FFF76CFB02463B69D31A642B01D90323CE
:10155800FAE15D4B1B6803F40033002BF0D014E074
:10156800FFF75CFB386108E0FFF758FB02463B6970
:10157800D31A642B01D90323E6E1534B1B6803F408
:101588000033002BF0D100E000BF7B681B6803F03C
:101598000203002B63D04C4B5B6803F00C03002B59
:1015A8000BD0494B5B6803F00C03082B1CD1464B4E
:1015B8005B6803F48033002B16D1434B1B6803F0A0
:1015C8000203002B05D07B681B69012B01D0012386
:1015D800BAE13D4B1B6823F0F8027B685B69DB00CE
:1015E800394913430B603AE07B681B69002B20D014
:1015F800364B01221A60FFF711FB386108E0FFF74C
:101608000DFB02463B69D31A022B01D903239BE148
:101618002D4B1B6803F00203002BF0D02A4B1B68EC
:1016280023F0F8027B685B69DB00274913430B60F2
:1016380015E0264B00221A60FFF7F0FA386108E03F
:10164800FFF7ECFA02463B69D31A022B01D90323B0
:101658007AE11D4B1B6803F00203002BF0D17B6875
:101668001B6803F00803002B3AD07B689B69002BAA
:1016780019D0174B01221A60FFF7D0FA386108E039
:10168800FFF7CCFA02463B69D31A022B01D9032390
:101698005AE10D4B5B6A03F00203002BF0D00120E6
:1016A80000F0D8FA1CE00A4B00221A60FFF7B6FADD
:1016B80038610FE0FFF7B2FA02463B69D31A022BF2
:1016C80008D9032340E100BF001002400000424255
:1016D800800442429E4B5B6A03F00203002BE9D16F
:1016E8007B681B6803F00403002B00F0A68000232E
:1016F800FB75974BDB6903F08053002B0DD1944B9E
:10170800DB69934A43F08053D361914BDB6903F063
:101718008053BB60BB680123FB758E4B1B6803F4C9
:101728008073002B18D18B4B1B688A4A43F4807353
:101738001360FFF773FA386108E0FFF76FFA0246A3
:101748003B69D31A642B01D90323FDE0814B1B6845
:1017580003F48073002BF0D07B68DB68012B06D183
:101768007B4B1B6A7A4A43F0010313622DE07B68C6
:10177800DB68002B0CD1764B1B6A754A23F00103FA
:101788001362734B1B6A724A23F0040313621CE052
:101798007B68DB68052B0CD16D4B1B6A6C4A43F0E8
:1017A800040313626A4B1B6A694A43F0010313621C
:1017B8000BE0674B1B6A664A23F001031362644B14
:1017C8001B6A634A23F0040313627B68DB68002BFF
:1017D80015D0FFF723FA38610AE0FFF71FFA02462F
:1017E8003B69D31A41F28832934201D90323ABE013
:1017F800574B1B6A03F00203002BEED014E0FFF7EF
:101808000DFA38610AE0FFF709FA02463B69D31A74
:1018180041F28832934201D9032395E04C4B1B6A6D
:1018280003F00203002BEED1FB7D012B05D1484BC1
:10183800DB69474A23F08053D3617B68DB69002B5F
:1018480000F08180424B5B6803F00C03082B61D0E9
:101858007B68DB69022B46D13F4B00221A60FFF7F9
:10186800DDF9386108E0FFF7D9F902463B69D31A78
:10187800022B01D9032367E0354B1B6803F0007383
:10188800002BF0D17B681B6AB3F5803F08D1304B41
:101898005B6823F400327B689B682D4913434B60D7
:1018A8002B4B5B6823F474127B68196A7B685B6A4C
:1018B8000B43274913434B60274B01221A60FFF75C
:1018C800ADF9386108E0FFF7A9F902463B69D31A78
:1018D800022B01D9032337E01D4B1B6803F000736B
:1018E800002BF0D02FE01C4B00221A60FFF796F96E
:1018F800386108E0FFF792F902463B69D31A022BD8
:1019080001D9032320E0124B1B6803F00073002B5E
:10191800F0D118E07B68DB69012B01D1012313E0CA
:101928000B4B5B68FB60FB6803F480327B681B6AC7
:101938009A4206D1FB6803F470127B685B6A9A428C
:1019480001D0012300E0002318461837BD4680BDAA
:1019580000100240007000406000424280B584B030
:1019680000AF786039607B68002B01D10123D0E09B
:101978006A4B1B6803F007033A689A4210D9674B11
:101988001B6823F0070265493B6813430B60634BF0
:101998001B6803F007033A689A4201D00123B8E0B4
:1019A8007B681B6803F00203002B20D07B681B6850
:1019B80003F00403002B05D0594B5B68584A43F4E5
:1019C800E06353607B681B6803F00803002B05D0B5
:1019D800534B5B68524A43F460535360504B5B6807
:1019E80023F0F0027B689B684D4913434B607B688A
:1019F8001B6803F00103002B40D07B685B68012B58
:101A080007D1474B1B6803F40033002B15D1012382
:101A18007FE07B685B68022B07D1414B1B6803F0B2
:101A28000073002B09D1012373E03D4B1B6803F0C1
:101A38000203002B01D101236BE0394B5B6823F0D3
:101A480003027B685B68364913434B60FFF7E6F88F
:101A5800F8600AE0FFF7E2F80246FB68D31A41F2A1
:101A68008832934201D9032353E02D4B5B6803F07E
:101A78000C027B685B689B009A42EBD1274B1B6882
:101A880003F007033A689A4210D2244B1B6823F0EC
:101A9800070222493B6813430B60204B1B6803F085
:101AA80007033A689A4201D0012332E07B681B6839
:101AB80003F00403002B08D0194B5B6823F4E062A1
:101AC8007B68DB68164913434B607B681B6803F02F
:101AD8000803002B09D0124B5B6823F460527B6823
:101AE8001B69DB000E4913434B6000F021F80246E6
:101AF8000B4B5B681B0903F00F030A49CB5C22FA06
:101B080003F3094A1360094B1B681846FFF744F8AA
:101B1800002318461037BD4680BD00BF0020024094
:101B2800001002408CA700080800002000000020D8
:101B380090B48AB000AF2A4B3C1D0FCB84E80F004D
:101B480040F201233B800023FB610023BB6100239B
:101B58007B6200237B6100233B62224B5B68FB6155
:101B6800FB6903F00C03042B02D0082B03D02DE0F3
:101B78001D4B3B622DE0FB699B0C03F00F0307F143
:101B88002802134413F8243C7B61FB6903F4803377
:101B9800002B13D0134B5B685B0C03F0010307F1B8
:101BA8002802134413F8283CBB617B690E4A02FBE8
:101BB80003F2BB69B2FBF3F37B6204E07B690B4A77
:101BC80002FB03F37B627B6A3B6202E0064B3B62EB
:101BD80000BF3B6A18462837BD4690BC704700BF17
:101BE80070A700080010024000127A0000093D00AA
:101BF80080B400AF024B1B681846BD4680BC7047D6
:101C08000800002080B500AFFFF7F2FF0246054B41
:101C18005B681B0A03F007030349CB5C22FA03F352
:101C2800184680BD001002409CA7000880B500AF90
:101C3800FFF7DEFF0246054B5B68DB0A03F007038C
:101C48000349CB5C22FA03F3184680BD001002401A
:101C58009CA7000880B485B000AF78600A4B1B6869
:101C68000A4AA2FB03235B0A7A6802FB03F3FB60C0
:101C780000BFFB685A1EFA60002BF9D100BF00BFF5
:101C88001437BD4680BC704708000020D34D621051
:101C980080B582B000AF78607B68002B01D101234A
:101CA8001DE07B6893F83D30DBB2002B06D17B68E2
:101CB800002283F83C20786806F036FE7B68022212
:101CC80083F83D207B681A687B6804331946104600
:101CD80000F01CFA7B68012283F83D200023184697
:101CE8000837BD4680BD80B485B000AF78607B689A
:101CF8001B68DA687B681B6842F00102DA607B685F
:101D08001B689B6803F00703FB60FB68062B07D082
:101D18007B681B681A687B681B6842F001021A60BE
:101D2800002318461437BD4680BC704780B582B082
:101D380000AF78607B681B681B6903F00203022B05
:101D480022D17B681B68DB6803F00203022B1BD1DE
:101D58007B681B686FF002021A617B6801221A77A0
:101D68007B681B689B6903F00303002B03D078682A
:101D780000F0B1F905E0786800F0A4F9786800F09F
:101D8800B3F97B6800221A777B681B681B6903F02C
:101D98000403042B22D17B681B68DB6803F004036F
:101DA800042B1BD17B681B686FF004021A617B68E7
:101DB80002221A777B681B689B6903F44073002B27
:101DC80003D0786800F087F905E0786800F07AF9C0
:101DD800786800F089F97B6800221A777B681B68AD
:101DE8001B6903F00803082B22D17B681B68DB689A
:101DF80003F00803082B1BD17B681B686FF00802EF
:101E08001A617B6804221A777B681B68DB6903F018
:101E18000303002B03D0786800F05DF905E07868CB
:101E280000F050F9786800F05FF97B6800221A77B3
:101E38007B681B681B6903F01003102B22D17B6899
:101E48001B68DB6803F01003102B1BD17B681B6831
:101E58006FF010021A617B6808221A777B681B688A
:101E6800DB6903F44073002B03D0786800F033F982
:101E780005E0786800F026F9786800F035F97B68A5
:101E880000221A777B681B681B6903F00103012B8A
:101E98000ED17B681B68DB6803F00103012B07D1B7
:101EA8007B681B686FF001021A61786806F0D6FB40
:101EB8007B681B681B6903F08003802B0ED17B684D
:101EC8001B68DB6803F08003802B07D17B681B68E5
:101ED8006FF080021A61786800F075FA7B681B68F9
:101EE8001B6903F04003402B0ED17B681B68DB683D
:101EF80003F04003402B07D17B681B686FF040025A
:101F08001A61786800F0F9F87B681B681B6903F0B0
:101F18002003202B0ED17B681B68DB6803F02003AD
:101F2800202B07D17B681B686FF020021A61786844
:101F380000F040FA00BF0837BD4680BD80B584B0C8
:101F480000AF786039607B6893F83C30012B01D191
:101F58000223B3E07B68012283F83C207B680222DD
:101F680083F83D207B681B689B68FB60FB6823F057
:101F78007703FB60FB6823F47F43FB607B681B6887
:101F8800FA689A603B681B68B3F5005F3ED0B3F50A
:101F9800005F00F28780B3F5805F00F08580B3F5BD
:101FA800805F7FD8702B1AD0702B7BD8602B50D0D5
:101FB800602B77D8502B3CD0502B73D8402B58D05F
:101FC800402B6FD8302B64D0302B6BD8202B60D0AF
:101FD800202B67D8002B5CD0102B5AD062E07B688E
:101FE80018683B6899683B685A683B68DB6800F08A
:101FF8007EF97B681B689B68FB60FB6843F077038E
:10200800FB607B681B68FA689A604EE07B6818681A
:102018003B6899683B685A683B68DB6800F067F979
:102028007B681B689A687B681B6842F480429A60E8
:102038003BE07B6818683B6859683B68DB681A4670
:1020480000F0DEF87B681B685021184600F035F96F
:102058002BE07B6818683B6859683B68DB681A4660
:1020680000F0FCF87B681B686021184600F025F931
:102078001BE07B6818683B6859683B68DB681A4650
:1020880000F0BEF87B681B684021184600F015F97F
:102098000BE07B681A683B681B681946104600F01D
:1020A8000CF902E000BF00E000BF7B68012283F862
:1020B8003D207B68002283F83C2000231846103717
:1020C800BD4680BD80B483B000AF786000BF0C37D8
:1020D800BD4680BC704780B483B000AF786000BF55
:1020E8000C37BD4680BC704780B483B000AF7860C1
:1020F80000BF0C37BD4680BC704780B483B000AFCA
:10210800786000BF0C37BD4680BC704780B485B08E
:1021180000AF786039607B681B68FB607B68334A76
:10212800934213D07B68324A93420FD07B68B3F155
:10213800804F0BD07B682F4A934207D07B682E4A8A
:10214800934203D07B682D4A934208D1FB6823F061
:102158007003FB603B685B68FA681343FB607B684D
:10216800224A934213D07B68214A93420FD07B685E
:10217800B3F1804F0BD07B681E4A934207D07B682F
:102188001D4A934203D07B681C4A934208D1FB68DE
:1021980023F44073FB603B68DB68FA681343FB6019
:1021A800FB6823F080023B685B691343FB607B6834
:1021B800FA681A603B689A687B68DA623B681A6852
:1021C8007B689A627B68094A934203D07B68084A15
:1021D800934203D13B681A697B681A637B680122C2
:1021E8005A6100BF1437BD4680BC7047002C0140BF
:1021F800003401400004004000080040000C00408A
:1022080080B487B000AFF860B9607A60FB681B6A79
:102218007B61FB681B6A23F00102FB681A62FB689A
:102228009B693B613B6923F0F0033B617B681B01C1
:102238003A6913433B617B6923F00A037B617A693E
:10224800BB6813437B61FB683A699A61FB687A69EA
:102258001A6200BF1C37BD4680BC704780B487B087
:1022680000AFF860B9607A60FB681B6A23F010025F
:10227800FB681A62FB689B697B61FB681B6A3B61B0
:102288007B6923F470437B617B681B037A69134382
:102298007B613B6923F0A0033B61BB681B013A6982
:1022A80013433B61FB687A699A61FB683A691A6271
:1022B80000BF1C37BD4680BC704780B485B000AFF6
:1022C800786039607B689B68FB60FB6823F070036B
:1022D800FB603A68FB68134343F00703FB607B68C5
:1022E800FA689A6000BF1437BD4680BC704780B456
:1022F80087B000AFF860B9607A603B60FB689B68A4
:102308007B617B6923F47F437B613B681A027B68AE
:102318001A43BB6813437A6913437B61FB687A6984
:102328009A6000BF1C37BD4680BC704780B485B03A
:1023380000AF786039607B6893F83C30012B01D19D
:10234800022332E07B68012283F83C207B6802226A
:1023580083F83D207B681B685B68FB607B681B68B3
:102368009B68BB60FB6823F07003FB603B681B68DD
:10237800FA681343FB60BB6823F08003BB603B68CB
:102388005B68BA681343BB607B681B68FA685A606D
:102398007B681B68BA689A607B68012283F83D20D5
:1023A8007B68002283F83C20002318461437BD467A
:1023B80080BC704780B483B000AF786000BF0C3732
:1023C800BD4680BC704780B483B000AF786000BF62
:1023D8000C37BD4680BC704780B582B000AF7860CE
:1023E8007B68002B01D101233FE07B6893F83930EB
:1023F800DBB2002B06D17B68002283F8382078688E
:1024080006F0E2FA7B68242283F839207B681B688F
:10241800DA687B681B6822F40052DA60786800F09A
:102428008BFB7B681B681A697B681B6822F49042E7
:102438001A617B681B685A697B681B6822F02A024C
:102448005A617B681B68DA687B681B6842F4005233
:10245800DA607B680022DA637B68202283F83920FF
:102468007B68202283F83A20002318460837BD46A7
:1024780080BD80B588B002AFF860B9603B60134694
:10248800FB8000237B61FB6893F83930DBB2202B9B
:1024980040F08380BB68002B02D0FB88002B01D161
:1024A80001237BE0FB6893F83830012B01D102232C
:1024B80074E0FB68012283F83820FB680022DA63A5
:1024C800FB68212283F83920FEF7A8FB7861FB68B6
:1024D800FA889A84FB68FA88DA8442E0FB68DB8C25
:1024E8009BB2013B9AB2FB68DA84FB689B68B3F540
:1024F800805F22D13B6800937B6900228021F868C5
:1025080000F0B0F90346002B01D0032346E0BB6876
:102518003B613B691B881A46FB681B68C2F30802CB
:102528005A60FB681B69002B03D1BB680233BB6090
:1025380017E0BB680133BB6013E03B6800937B691D
:1025480000228021F86800F08DF90346002B01D0A5
:10255800032323E0BB685A1CBA601A78FB681B681F
:102568005A60FB68DB8C9BB2002BB7D13B680093A9
:102578007B6900224021F86800F074F90346002BBB
:1025880001D003230AE0FB68202283F83920FB6886
:10259800002283F83820002300E002231846183769
:1025A800BD4680BD80B485B000AFF860B960134601
:1025B800FB80FB6893F83A30DBB2202B40D1BB6834
:1025C800002B02D0FB88002B01D1012339E0FB68E6
:1025D80093F83830012B01D1022332E0FB68012245
:1025E80083F83820FB68BA689A62FB68FA889A858B
:1025F800FB68FA88DA85FB680022DA63FB68222226
:1026080083F83A20FB68002283F83820FB681B68AF
:10261800DA68FB681B6842F48072DA60FB681B6842
:102628005A69FB681B6842F001025A61FB681B6823
:10263800DA68FB681B6842F02002DA60002300E0D9
:10264800022318461437BD4680BC704780B588B051
:1026580000AF78607B681B681B68FB617B681B6840
:10266800DB68BB617B681B685B697B6100233B613E
:102678000023FB60FB6903F00F033B613B69002B00
:102688000DD1FB6903F02003002B08D0BB6903F0D0
:102698002003002B03D0786800F0CCF9CBE03B692D
:1026A800002B00F0AB807B6903F00103002B05D100
:1026B800BB6903F49073002B00F0A080FB6903F062
:1026C8000103002B0AD0BB6903F48073002B05D0EB
:1026D8007B68DB6B43F001027B68DA63FB6903F01C
:1026E8000403002B0AD07B6903F00103002B05D0FB
:1026F8007B68DB6B43F002027B68DA63FB6903F0FB
:102708000203002B0AD07B6903F00103002B05D0DC
:102718007B68DB6B43F004027B68DA63FB6903F0D8
:102728000803002B0AD07B6903F00103002B05D0B6
:102738007B68DB6B43F008027B68DA637B68DB6BE2
:10274800002B77D0FB6903F02003002B07D0BB696F
:1027580003F02003002B02D0786800F06BF97B6847
:102768001B685B6903F04003002B14BF012300239F
:10277800DBB2FB607B68DB6B03F00803002B02D144
:10278800FB68002B31D0786800F0B6F87B681B68CE
:102798005B6903F04003002B23D07B681B685A69F0
:1027A8007B681B6822F040025A617B685B6B002BD8
:1027B80013D07B685B6B214A5A637B685B6B184656
:1027C800FEF768FB0346002B16D07B685B6B5B6BE0
:1027D8007A68526B104698470EE0786800F039F82E
:1027E8000AE0786800F035F806E0786800F031F81B
:1027F8007B680022DA631DE000BF1BE0FB6903F081
:102808008003002B08D0BB6903F08003002B03D0A2
:10281800786800F0A2F80EE0FB6903F04003002B93
:1028280009D0BB6903F04003002B04D0786800F09E
:10283800E9F800E000BF2037BD4680BD3B2900080D
:1028480080B483B000AF786000BF0C37BD4680BC51
:10285800704780B483B000AF786000BF0C37BD46C6
:1028680080BC704780B584B000AFF860B9603B6049
:102878001346FB712CE0BB69B3F1FF3F28D0BB695D
:10288800002B07D0FEF7CAF902463B68D31ABA698B
:102898009A421DD2FB681B68DA68FB681B6822F441
:1028A800D072DA60FB681B685A69FB681B6822F003
:1028B80001025A61FB68202283F83920FB68202234
:1028C80083F83A20FB68002283F8382003230FE0BE
:1028D800FB681B681A68BB681340BA689A420CBF49
:1028E80001230023DBB21A46FB799A42C3D00023A6
:1028F80018461037BD4680BD80B483B000AF7860FD
:102908007B681B68DA687B681B6822F49072DA605F
:102918007B681B685A697B681B6822F001025A6150
:102928007B68202283F83A2000BF0C37BD4680BC64
:10293800704780B584B000AF78607B685B6AFB60E5
:10294800FB680022DA85FB680022DA84F868FFF762
:1029580080FF00BF1037BD4680BD80B485B000AF92
:1029680078607B6893F83930DBB2212B44D17B68DF
:102978009B68B3F5805F1AD17B681B6AFB60FB68B4
:102988001B881A467B681B68C2F308025A607B687A
:102998001B69002B05D17B681B6A9A1C7B681A622D
:1029A8000EE07B681B6A5A1C7B681A6208E07B6829
:1029B8001B6A591C7A6811621A787B681B685A600E
:1029C8007B68DB8C9BB2013B9BB27A681946D18449
:1029D800002B0FD17B681B68DA687B681B6822F0C4
:1029E8008002DA607B681B68DA687B681B6842F0E3
:1029F8004002DA60002300E0022318461437BD467F
:102A080080BC704780B582B000AF78607B681B6877
:102A1800DA687B681B6822F04002DA607B68202253
:102A280083F839207868FFF70BFF0023184608372A
:102A3800BD4680BD80B584B000AF78607B6893F8F0
:102A48003A30DBB2222B71D17B689B68B3F5805F8B
:102A580023D17B689B6AFB607B681B69002B0ED1C6
:102A68007B681B685B689BB2C3F308039AB2FB6878
:102A78001A807B689B6A9A1C7B689A6229E07B684B
:102A88001B685B689BB2DBB29AB2FB681A807B68F2
:102A98009B6A5A1C7B689A621BE07B681B69002B47
:102AA8000AD17B681B6858687B689B6A591C7A68DE
:102AB8009162C2B21A700CE07B681B685B68DAB27C
:102AC8007B689B6A581C7968886202F07F02D2B2E0
:102AD8001A707B68DB8D9BB2013B9BB27A68194602
:102AE800D185002B20D17B681B68DA687B681B685E
:102AF80022F02002DA607B681B68DA687B681B6852
:102B080022F48072DA607B681B685A697B681B68EC
:102B180022F001025A617B68202283F83A20786803
:102B280005F036FD002302E0002300E002231846EA
:102B38001037BD4680BD000080B584B000AF786016
:102B48007B681B681B6923F440517B68DA687B68E3
:102B58001B680A431A617B689A687B681B691A4379
:102B68007B685B691343FB607B681B68DB6823F445
:102B7800B05323F00C037A681268F9680B43D360EA
:102B88007B681B685B6923F440717B689A697B6882
:102B98001B680A435A617B681B68524A93424ED1AC
:102BA800FFF744F8B860BA6813469B0013449A00CC
:102BB8001A447B685B689B00B2FBF3F34A4AA2FBAA
:102BC80003235B091901BA6813469B0013449A0052
:102BD8001A447B685B689B00B2FBF3F2424BA3FB91
:102BE80002035B09642000FB03F3D31A1B01323391
:102BF8003D4AA2FB03235B0903F0F0031944BA68BA
:102C080013469B0013449A001A447B685B689B0038
:102C1800B2FBF3F2344BA3FB02035B09642000FB15
:102C280003F3D31A1B0132332F4AA2FB03235B0998
:102C380003F00F027B681B680A449A604DE0FEF7B8
:102C4800E1FFB860BA6813469B0013449A001A441F
:102C58007B685B689B00B2FBF3F3234AA2FB032368
:102C68005B091901BA6813469B0013449A001A4479
:102C78007B685B689B00B2FBF3F21B4BA3FB020370
:102C88005B09642000FB03F3D31A1B013233164A95
:102C9800A2FB03235B0903F0F0031944BA68134647
:102CA8009B0013449A001A447B685B689B00B2FB44
:102CB800F3F20D4BA3FB02035B09642000FB03F353
:102CC800D31A1B013233084AA2FB03235B0903F022
:102CD8000F027B681B680A449A6000BF1037BD4624
:102CE80080BD00BF003801401F85EB5180B588B01A
:102CF80000AF07F1100300221A605A609A60DA6088
:102D0800464B9B69454A43F020039361434B9B69BB
:102D180003F02003FB60FB68404B9B693F4A43F08C
:102D2800040393613D4B9B6903F00403BB60BB68DC
:102D38003A4B9B69394A43F010039361374B9B69BF
:102D480003F010037B607B6800224FF480713448E5
:102D5800FEF753FB002204213248FEF74EFB012305
:102D68003B61314B7B610223BB6107F110031946BC
:102D78002B48FEF797F920233B612C4B7B610123FD
:102D8800BB6107F1100319462948FEF78BF94FF488
:102D980080733B6101237B610023BB610223FB61DC
:102DA80007F1100319461E48FEF77CF94FF400435B
:102DB8003B611E4B7B610123BB6107F11003194680
:102DC8001748FEF76FF904233B6101237B61002359
:102DD800BB610223FB6107F1100319461148FEF796
:102DE80061F9002201210620FEF71DF80620FEF7F2
:102DF80036F8012201211720FEF715F81720FEF7F3
:102E08002EF8022201212820FEF70DF82820FEF7CF
:102E180026F800BF2037BD4680BD00BF0010024025
:102E280000080140001401400000111000002110AA
:102E38000010014080B483B000AF0346FB800D4B07
:102E48004FF480725A610B4B4FF400725A610A4A70
:102E5800FB88D360074B80225A61064B80221A6197
:102E6800044B4FF400721A6100BF0C37BD4680BC9A
:102E7800704700BF00100140000C014080B483B0CF
:102E880000AF0346FB800D4B4FF480721A610B4B69
:102E98004FF400725A610A4AFB88D360074B8022BC
:102EA8005A61064B80221A61044B4FF400721A6172
:102EB80000BF0C37BD4680BC704700BF0010014002
:102EC800000C014080B582B000AF1D4B4FF0883236
:102ED8001A601B4B4FF088325A60194B0022DA6097
:102EE800184B4FF480721A61164B4FF400725A61F6
:102EF800144B40225A61144B9B8848F6891293421E
:102F080002D10120FDF794FE0D4B9B68FB800D4B11
:102F180040221A610B4B4FF400721A61084B4FF0B4
:102F280033321A60064B4FF033325A60044B4FF677
:102F3800FF72DA60FB8818460837BD4680BD00BFBF
:102F4800000C0140001001409400002080B582B0C0
:102F580000AF03460A46FB801346BB80FB88184631
:102F6800FFF768FF0C4B4FF480721A610A4B4FF45D
:102F780000725A61094ABB88D360074B80225A61A4
:102F8800054B80221A61044B4FF400721A6100BF8E
:102F98000837BD4680BD00BF00100140000C01404D
:102FA80080B582B000AF0346FB80FB881846FFF768
:102FB80041FFFFF787FF034618460837BD4680BD27
:102FC80080B500AF034B1B891846FFF733FF00BFDE
:102FD80080BD00BF9400002080B582B000AF0346DA
:102FE8000A46FB801346BB80734B9B8849F24132EB
:102FF800934205D0704B9B8845F21032934264D1BE
:103008006D4B5B891846FFF715FF6C4B4FF48072C8
:103018001A616A4B4FF400725A61FB881B0A9AB214
:10302800674BDA60654B80225A61644B80221A61D3
:10303800624B4FF400721A61604B4FF480721A6150
:103048005E4B4FF400725A61FB885D4ADBB2D36075
:103058005A4B80225A61594B80221A61574B4FF4C0
:1030680000721A61544B9B891846FFF7E3FE534BD5
:103078004FF480721A61514B4FF400725A61BB8849
:103088001B0A9AB24E4BDA604C4B80225A614B4B6A
:1030980080221A61494B4FF400721A61474B4FF472
:1030A80080721A61454B4FF400725A61BB88444ADA
:1030B800DBB2D360414B80225A61404B80221A61B7
:1030C8003E4B4FF400721A6148E23B4B9B8846F630
:1030D8000402934276D1384B9B79012B06D1364BAB
:1030E8001A88FB88D31A9BB2013BFB80324B5B8961
:1030F8001846FFF79FFE314B4FF480721A612F4B31
:103108004FF400725A61FB881B0A9AB22C4BDA60A2
:103118002A4B80225A61294B80221A61274B4FF48F
:1031280000721A61254B4FF480721A61234B4FF4D9
:1031380000725A61FB88224ADBB2D3601F4B80229F
:103148005A611E4B80221A611C4B4FF400721A619F
:10315800194B9B891846FFF76DFE184B4FF4807288
:103168001A61164B4FF400725A61BB881B0A9AB257
:10317800134BDA60114B80225A61104B80221A617E
:103188000E4B4FF400721A610C4B4FF480721A61A7
:103198000A4B4FF400725A61BB88094ADBB2D3600C
:1031A800064B80225A61054B80221A61034B4FF46B
:1031B80000721A61D2E100BF9400002000100140A3
:1031C800000C0140994B9B8841F66312934240F0F2
:1031D8003381964B9B79002B63D1944B1A88FB88DB
:1031E800D31A9BB2013BFB80904B5B891846FFF7D3
:1031F80021FE8F4B4FF480721A618D4B4FF4007291
:103208005A618C4B0022DA60894B80225A61884BC4
:1032180080221A61864B4FF400721A61844B4FF476
:1032280080721A61824B4FF400725A61814B0022FE
:10323800DA607F4B80225A617D4B80221A617C4B79
:103248004FF400721A617A4B4FF480721A61784B0E
:103258004FF400725A61FB881B0A9AB2754BDA6008
:10326800734B80225A61724B80221A61704B4FF463
:1032780000721A616E4B4FF480721A616C4B4FF4F6
:1032880000725A61FB886B4ADBB2D360684B8022BC
:103298005A61674B80221A61654B4FF400721A61BC
:1032A80061E0624B5B891846FFF7C4FD604B4FF441
:1032B80080721A615E4B4FF400725A61FB881B0AD8
:1032C8009AB25C4BDA605A4B80225A61584B802282
:1032D8001A61574B4FF400721A61554B4FF48072C4
:1032E8001A61534B4FF400725A61FB88514ADBB2A2
:1032F800D3604F4B80225A614D4B80221A614C4B50
:103308004FF400721A614A4B4FF480721A61484BAD
:103318004FF400725A61454B1B88013B1A12454B0A
:10332800DA60434B80225A61414B80221A61404B3C
:103338004FF400721A613E4B4FF480721A613C4B95
:103348004FF400725A61394B1B88013B394ADBB292
:10335800D360374B80225A61354B80221A61344B37
:103368004FF400721A61314B9B891846FFF762FDD2
:103378002F4B4FF480721A612D4B4FF400725A6133
:10338800BB881B0A9AB22B4BDA60294B80225A6100
:10339800274B80221A61264B4FF400721A61244B86
:1033A8004FF480721A61224B4FF400725A61BB8845
:1033B800204ADBB2D3601E4B80225A611C4B80220C
:1033C8001A611B4B4FF400721A61194B4FF480724B
:1033D8001A61174B4FF400725A61144B5B88013B1A
:1033E8001A12144BDA60124B80225A61104B802259
:1033F8001A610F4B4FF400721A610D4B4FF4807233
:103408001A610B4B4FF400725A61084B5B88013B01
:10341800084ADBB2D360064B80225A61044B8022F3
:103428001A61034B4FF400721A6197E09400002070
:1034380000100140000C01404A4B9B8845F2105295
:10344800934272D1474B5B891846FFF7F3FC464B12
:103458004FF480721A61444B4FF400725A61FB8832
:103468001B0A9AB2414BDA603F4B80225A613E4BAD
:1034780080221A613C4B4FF400721A61394B5B8908
:1034880001339BB21846FFF7D5FC374B4FF48072D7
:103498001A61354B4FF400725A61FB88334ADBB22C
:1034A800D360314B80225A612F4B80221A612E4BF8
:1034B8004FF400721A612B4B9B891846FFF7BAFC30
:1034C800294B4FF480721A61274B4FF400725A61EE
:1034D800BB881B0A9AB2254BDA60234B80225A61BB
:1034E800214B80221A61204B4FF400721A611D4B48
:1034F8009B8901339BB21846FFF79CFC1A4B4FF48B
:1035080080721A61184B4FF400725A61BB88174ACF
:10351800DBB2D360144B80225A61134B80221A61AC
:10352800114B4FF400721A6118E00E4B9B79012B76
:1035380006D10C4B1A88FB88D31A9BB2013BFB803F
:10354800084B5B89FA8811461846FFF7FFFC054BC4
:103558009B89BA8811461846FFF7F8FC00BF083760
:10356800BD4680BD9400002000100140000C0140C1
:1035780080B584B000AF0346FB710023FB810023B4
:10358800BB81784B9B79012B0BD1764B9B8846F6F8
:103598000402934205D0734B9B8841F66312934211
:1035A80009D1704B9B79002B34D16E4B9B8841F627
:1035B800631293422ED1FB79072B2CD801A252F823
:1035C80023F000BFED350008F3350008F935000891
:1035D800FF350008053600080B36000811360008CC
:1035E800173600080623FB7115E00723FB7112E06C
:1035F8000423FB710FE00523FB710CE00123FB7131
:1036080009E00023FB7106E00323FB7103E00223BA
:10361800FB7100E000BF534B9B8849F24132934253
:1036280018D0504B9B8846F60402934212D04D4B5B
:103638009B8845F2103293420CD04A4B9B8845F246
:103648001052934206D0474B9B8841F6631293422F
:1036580040F04F82FB79072B35D801A252F823F0AE
:10366800CF36000889360008933600089D360008D2
:10367800A7360008B1360008BB360008C536000872
:10368800FB8943F08003FB811DE0FB8943F0400385
:10369800FB8118E0FB8943F0C003FB8113E0FB8941
:1036A80043F02003FB810EE0FB8943F06003FB81BC
:1036B80009E0FB8943F0A003FB8104E0FB8943F0A8
:1036C800E003FB8100BF274B9B8845F210529342D1
:1036D80003D14FF45853BB8101E03623BB81214B02
:1036E8009B8845F2103293420FD01E4B9B8845F2BF
:1036F8001052934209D01B4B9B8841F663129342A8
:1037080003D0FB8943F00803FB81164B9B8846F6E0
:103718000402934203D1FB8943F00203FB81FA8937
:10372800BB8911461846FFF711FC0E4B9B8841F6E2
:103738006312934228D0FB8903F02003002B13D097
:10374800084B1A88074B5B889A421DD2054B1B8889
:103758007B81044B5A88034B1A80024A7B89538029
:1037680012E000BF940000207F4B1A887E4B5B88D4
:103778009A4209D97C4B1B887B817B4B5A887A4BB0
:103788001A80794A7B895380774B9B8845F210527F
:10379800934240F0EF80744B5B891846FFF74AFB71
:1037A800724B4FF480721A61704B4FF400725A6179
:1037B8006F4B0022DA606D4B80225A616B4B80227E
:1037C8001A616A4B4FF400721A61674B5B890133C7
:1037D8009BB21846FFF72EFB644B4FF480721A61B8
:1037E800624B4FF400725A61614B0022DA605F4B02
:1037F80080225A615D4B80221A615C4B4FF4007243
:103808001A61594B5B8902339BB21846FFF712FBCA
:10381800564B4FF480721A61544B4FF400725A6140
:10382800514B1B88013B1A12514BDA604F4B8022D7
:103838005A614E4B80221A614C4B4FF400721A6148
:10384800494B5B8903339BB21846FFF7F3FA474BA2
:103858004FF480721A61454B4FF400725A61424B23
:103868001B88013B424ADBB2D360404B80225A613D
:103878003E4B80221A613D4B4FF400721A613A4B5D
:103888009B891846FFF7D6FA384B4FF480721A61B5
:10389800364B4FF400725A61354B0022DA60334BD5
:1038A80080225A61314B80221A61304B4FF40072EA
:1038B8001A612D4B9B8901339BB21846FFF7BAFA60
:1038C8002A4B4FF480721A61284B4FF400725A61E8
:1038D800274B0022DA60254B80225A61234B802235
:1038E8001A61224B4FF400721A611F4B9B890233F5
:1038F8009BB21846FFF79EFA1C4B4FF480721A6170
:103908001A4B4FF400725A61174B5B88013B1A122D
:10391800174BDA60154B80225A61144B80221A61CA
:10392800124B4FF400721A610F4B9B8903339BB201
:103938001846FFF77FFA0D4B4FF480721A610B4B54
:103948004FF400725A61084B5B88013B084ADBB2AE
:10395800D360064B80225A61044B80221A61034BC4
:103968004FF400721A610BE194000020001001402E
:10397800000C0140844B5B891846FFF75BFA834BC8
:103988004FF480721A61814B4FF400725A61804B78
:103998000022DA607D4B80225A617C4B80221A61BA
:1039A8007A4B4FF400721A61784B4FF480721A61A7
:1039B800764B4FF400725A61754B0022DA60734BF4
:1039C80080225A61714B80221A61704B4FF4007249
:1039D8001A616E4B4FF480721A616C4B4FF400728F
:1039E8005A61694B1B88013B1A12694BDA60674BB5
:1039F80080225A61654B80221A61644B4FF4007231
:103A08001A61624B4FF480721A61604B4FF4007276
:103A18005A615D4B1B88013B5D4ADBB2D3605B4B4F
:103A280080225A61594B80221A61584B4FF4007218
:103A38001A61554B9B891846FFF7FCF9534B4FF415
:103A480080721A61514B4FF400725A61504B002238
:103A5800DA604E4B80225A614C4B80221A614B4BE4
:103A68004FF400721A61494B4FF480721A61474B48
:103A78004FF400725A61464B0022DA60434B8022B1
:103A88005A61424B80221A61404B4FF400721A610E
:103A98003E4B4FF480721A613C4B4FF400725A61EE
:103AA800394B5B88013B1A12394BDA60374B80225D
:103AB8005A61364B80221A61344B4FF400721A61F6
:103AC800324B4FF480721A61304B4FF400725A61D6
:103AD8002D4B5B88013B2E4ADBB2D3602B4B8022F7
:103AE8005A612A4B80221A61284B4FF400721A61DE
:103AF80046E0FB79072B36D801A252F823F000BF25
:103B0800293B0008333B00083D3B00086F3B000899
:103B1800473B0008513B00085B3B0008653B000839
:103B2800FB8943F03003FB811DE0FB8943F0100360
:103B3800FB8118E0FB8943F02003FB8113E0FB893C
:103B480043F03803FB810EE0FB8943F02803FB8137
:103B580009E0FB8943F01803FB8104E0FB8943F08B
:103B68000803FB8100BF0323BB81FB8943F4805317
:103B7800FB81FA89BB8911461846FFF7E7F900BFB0
:103B880000BF1037BD4680BD9400002000100140E2
:103B9800000C014080B582B000AF03460A46FB80A6
:103BA8001346BB80BA88FB8811461846FFF714FAFB
:103BB800FFF706FA0C4B4FF480721A610A4B4FF468
:103BC80000725A61094B1A88094BDA60064B802249
:103BD8005A61054B80221A61034B4FF400721A6137
:103BE80000BF0837BD4680BD00100140900000208E
:103BF800000C01400000000090B583B000AF034600
:103C0800FB71BE20FFF716F94B4B4FF480721A6117
:103C1800494B4FF400725A61484B0522DA60464B13
:103C280080225A61444B80221A61434B4FF4007240
:103C38001A61414B4FF480721A613F4B4FF4007286
:103C48005A61FB791846FCF73DFC39A3D3E90023F8
:103C5800FCF7A2FC02460B46384C10461946FCF706
:103C6800D5FE0346E360344B80225A61324B8022F2
:103C78001A61314B4FF400721A612F4B4FF4807266
:103C88001A612D4B4FF400725A612C4B0122DA60F5
:103C9800294B80225A61284B80221A61264B4FF407
:103CA80000721A61244B4FF480721A61224B4FF450
:103CB80000725A61214BFF22DA601F4B80225A6141
:103CC8001D4B80221A611C4B4FF400721A611A4B6B
:103CD8004FF480721A61184B4FF400725A61174BF7
:103CE8000022DA60144B80225A61134B80221A6139
:103CF800114B4FF400721A610F4B4FF480721A6126
:103D08000D4B4FF400725A610C4B0022DA600A4BDB
:103D180080225A61084B80221A61074B4FF40072C7
:103D28001A6100BF0C37BD4690BD00BFAFF30080DD
:103D3800666666666666044000100140000C014035
:103D480080B582B000AF0346FB71FB79002B77D1B9
:103D5800804B00229A717F4BF0221A807D4B4FF4E2
:103D6800A0725A807B4B9B8849F2413293420BD018
:103D7800784B9B8846F60402934205D0754B9B8886
:103D880045F2103293421ED1724B2C221A81714B8C
:103D98002A225A816F4B2B229A816E4B9B8846F6BA
:103DA8000402934206D06B4B9B8845F21032934233
:103DB80040F0C780674B4FF4A0721A80654B4FF4F0
:103DC800F0725A80BDE0634B9B8845F210529342D3
:103DD80014D1604B4FF430521A815E4B4FF4285285
:103DE8005A815C4B4FF42C529A815A4B4FF4F07223
:103DF8001A80584B4FF448725A80A3E0554B9B8861
:103E080041F66312934211D1524B2C221A81514B25
:103E18002B225A814F4B2A229A814E4B4FF4F07233
:103E28001A804C4B4FF448725A808BE0494B22223F
:103E38001A81484B20225A81464B21229A8181E0DF
:103E4800444B01229A71434B4FF4A0721A80414BA4
:103E5800F0225A803F4B9B8849F24132934205D069
:103E68003C4B9B8845F21032934209D1394B2C22A6
:103E78001A81384B2A225A81364B2B229A814BE0E1
:103E8800344B9B8846F60402934209D1314B2C22CD
:103E98001A81304B2B225A812E4B2A229A813BE0E1
:103EA8002C4B9B8845F21052934214D1294B4FF466
:103EB80030521A81274B4FF428525A81254B4FF420
:103EC8002C529A81234B4FF448721A80214B4FF49D
:103ED800F0725A8020E01F4B9B8841F66312934290
:103EE80011D11C4B2C221A811A4B2A225A81194BA8
:103EF8002B229A81174B4FF448721A80154B4FF4B6
:103F0800F0725A8008E0134B22221A81114B2122A9
:103F18005A81104B20229A810E4B9B8846F6040248
:103F2800934205D00B4B9B8845F21032934209D13E
:103F3800084B4FF4F0721A80064B4FF4A0725A8067
:103F480000E000BF0020FFF713FB00BF0837BD46A5
:103F580080BD00BF9400002080B586B000AF904BB4
:103F68009B698F4A43F0080393618D4B9B6903F06B
:103F780008037B607B688A4B9B69894A43F010037E
:103F88009361874B9B6903F010033B603B684FF4D8
:103F9800F863BB600123FB6001233B6103237B6162
:103FA80007F1080319467F48FDF77CF84FF6FF73C1
:103FB800BB6007F1080319467B48FDF773F8322008
:103FC800FCF736FE01210020FEF7C0FF3220FCF787
:103FD8002FFE0020FEF7E4FF03461A46734B9A8033
:103FE800724B9B88FE2B0BD9704B9B884FF6FF7248
:103FF800934205D06D4B9B88B3F5134F40F0C880B2
:10400800D320FEF717FFFEF75DFFFEF75BFFFEF715
:1040180059FF03461A46654B9A80644B9B881B02DE
:104028009AB2624B9A80FEF74DFF03461A465F4BE1
:104038009B8813439AB25D4B9A805C4B9B8849F2EC
:104048004132934200F0A480BF20FEF7F3FEFEF752
:1040580039FFFEF737FFFEF735FFFEF733FF03465C
:104068001A46524B9A80514B9B881B029AB24F4B6F
:104078009A80FEF727FF03461A464C4B9B8813434A
:104088009AB24A4B9A80494B9B8846F6040293425F
:104098007ED0D420FEF7CEFEFEF714FFFEF712FF07
:1040A800FEF710FF03461A46404B9A803F4B9B8809
:1040B8001B029AB23D4B9A80FEF704FF03461A464C
:1040C8003A4B9B8813439AB2384B9A80374B9B885C
:1040D80045F2103293425BD04FF45A40FEF7AAFEE5
:1040E800FEF7F0FE4FF45B40FEF7A4FEFEF7EAFE93
:1040F80003461A462D4B9A802C4B9B881B029AB27A
:104108002A4B9A804FF45C40FEF794FEFEF7DAFEE5
:1041180003461A46254B9B8813439AB2234B9A8031
:10412800224B9B88B3F5004F03D1204B45F2105228
:104138009A801E4B9B8845F21052934228D0A120AA
:10414800FEF778FEFEF7BEFE03461A46174B9A8026
:10415800FEF7B8FE03461A46144B9A80134B9B8809
:104168001B029AB2114B9A80FEF7ACFE03461A4620
:104178000E4B9B8813439AB20C4B9A800B4B9B882F
:1041880045F26172934203D1084B41F663129A805B
:10419800064B9B8849F24132934240F01F8107E069
:1041A8000010024000100140000C01409400002063
:1041B800CF20FEF73FFE0020FEF760FEC120FEF78D
:1041C8005DFE3020FEF75AFEED20FEF733FE642038
:1041D800FEF754FE0320FEF751FE1220FEF74EFEB6
:1041E8008120FEF74BFEE820FEF724FE8520FEF72F
:1041F80045FE1020FEF742FE7A20FEF73FFECB2058
:10420800FEF718FE3920FEF739FE2C20FEF736FEA1
:104218000020FEF733FE3420FEF730FE0220FEF7C2
:104228002DFEF720FEF706FE2020FEF727FEEA20E7
:10423800FEF700FE0020FEF721FE0020FEF71EFE1E
:10424800C020FEF7F7FD1B20FEF718FEC120FEF781
:10425800F1FD0120FEF712FEC520FEF7EBFD302030
:10426800FEF70CFE3020FEF709FEC720FEF7E2FD40
:10427800B720FEF703FE3620FEF7DCFD4820FEF7E8
:10428800FDFD3A20FEF7D6FD5520FEF7F7FDB120DB
:10429800FEF7D0FD0020FEF7F1FD1A20FEF7EEFD37
:1042A800B620FEF7C7FD0A20FEF7E8FDA220FEF7BC
:1042B800E5FDF220FEF7BEFD0020FEF7DFFD26201B
:1042C800FEF7B8FD0120FEF7D9FDE020FEF7B2FDAC
:1042D8000F20FEF7D3FD2A20FEF7D0FD2820FEF799
:1042E800CDFD0820FEF7CAFD0E20FEF7C7FD082009
:1042F800FEF7C4FD5420FEF7C1FDA920FEF7BEFD60
:104308004320FEF7BBFD0A20FEF7B8FD0F20FEF79D
:10431800B5FD0020FEF7B2FD0020FEF7AFFD00203E
:10432800FEF7ACFD0020FEF7A9FDE120FEF782FDB7
:104338000020FEF7A3FD1520FEF7A0FD1720FEF7CD
:104348009DFD0720FEF79AFD1120FEF797FD062038
:10435800FEF794FD2B20FEF791FD5620FEF78EFD0B
:104368003C20FEF78BFD0520FEF788FD1020FEF7A8
:1043780085FD0F20FEF782FD3F20FEF77FFD3F20E1
:10438800FEF77CFD0F20FEF779FD2B20FEF752FD8E
:104398000020FEF773FD0020FEF770FD0120FEF7F8
:1043A8006DFD3F20FEF76AFD2A20FEF743FD002041
:1043B800FEF764FD0020FEF761FD0020FEF75EFDBC
:1043C800EF20FEF75BFD1120FEF734FD7820FCF7A7
:1043D8002FFC2920FEF72EFD03F0D8BC584B9B88F4
:1043E80046F60402934240F0AD801120FEF722FD0C
:1043F8001420FCF71DFCD020FEF71CFD0720FEF75B
:104408003DFD4220FEF73AFD1D20FEF737FDD12085
:10441800FEF710FD0020FEF731FD1A20FEF72EFDF5
:104428000920FEF72BFDD220FEF704FD0120FEF740
:1044380025FD2220FEF722FDC020FEF7FBFC102000
:10444800FEF71CFD3B20FEF719FD0020FEF716FDC8
:104458000220FEF713FD1120FEF710FDC520FEF720
:10446800E9FC0320FEF70AFDC820FEF7E3FC002064
:10447800FEF704FD2520FEF701FD2120FEF7FEFCD6
:104488000520FEF7FBFC0020FEF7F8FC0A20FEF7EB
:10449800F5FC6520FEF7F2FC2520FEF7EFFC7720FF
:1044A800FEF7ECFC5020FEF7E9FC0F20FEF7E6FCD7
:1044B8000020FEF7E3FCF820FEF7BCFC0120FEF725
:1044C800DDFCFE20FEF7B6FC0020FEF7D7FC02203C
:1044D800FEF7D4FC2020FEF7ADFC3620FEF7AAFC40
:1044E8000820FEF7CBFC3A20FEF7A4FC5520FEF787
:1044F800C5FC2B20FEF79EFC0020FEF7BFFC002029
:10450800FEF7BCFC0120FEF7B9FC3F20FEF7B6FC25
:104518002A20FEF78FFC0020FEF7B0FC0020FEF7F3
:10452800ADFC0120FEF7AAFCDF20FEF7A7FC7820EF
:10453800FCF77EFB2920FEF77DFC03F027BC00BFBB
:1045480094000020034B9B8845F21032934240F0C0
:104558007C8701E094000020ED20FEF76BFC012031
:10456800FEF78CFCFE20FEF789FCEE20FEF762FCCD
:10457800DE20FEF783FC2120FEF780FCF120FEF709
:1045880059FC0120FEF77AFCDF20FEF753FC1020CF
:10459800FEF774FCC420FEF74DFC8F20FEF76EFC7E
:1045A800C620FEF747FC0020FEF768FCE220FEF775
:1045B80065FCE220FEF762FCE220FEF75FFCBF200C
:1045C800FEF738FCAA20FEF759FCB020FEF732FCB3
:1045D8000D20FEF753FC0020FEF750FC0D20FEF7DF
:1045E8004DFC0020FEF74AFC1120FEF747FC002096
:1045F800FEF744FC1920FEF741FC0020FEF73EFCC4
:104608002120FEF73BFC0020FEF738FC2D20FEF7AA
:1046180035FC0020FEF732FC3D20FEF72FFC002081
:10462800FEF72CFC5D20FEF729FC0020FEF726FC97
:104638005D20FEF723FC0020FEF720FCB120FEF7EA
:10464800F9FB8020FEF71AFC0020FEF717FC8B20F0
:10465800FEF714FC0020FEF711FC9620FEF70EFC76
:104668000020FEF70BFCB220FEF7E4FB0020FEF76B
:1046780005FC0020FEF702FC0220FEF7FFFB0020ED
:10468800FEF7FCFB0320FEF7F9FB0020FEF7F6FB24
:10469800B320FEF7CFFB0020FEF7F0FB0020FEF76B
:1046A800EDFB0020FEF7EAFB0020FEF7E7FB002009
:1046B800FEF7E4FB0020FEF7E1FB0020FEF7DEFB3F
:1046C8000020FEF7DBFB0020FEF7D8FB0020FEF7FA
:1046D800D5FB0020FEF7D2FB0020FEF7CFFB002021
:1046E800FEF7CCFB0020FEF7C9FB0020FEF7C6FB57
:1046F8000020FEF7C3FB0020FEF7C0FB0020FEF7FA
:10470800BDFB0020FEF7BAFB0020FEF7B7FB002038
:10471800FEF7B4FB0020FEF7B1FB0020FEF7AEFB6E
:104728000020FEF7ABFBB420FEF784FB8B20FEF7DE
:10473800A5FB0020FEF7A2FB9620FEF79FFB0020BA
:10474800FEF79CFBA120FEF799FB0020FEF796FBE5
:10475800B520FEF76FFB0220FEF790FB0020FEF766
:104768008DFB0320FEF78AFB0020FEF787FB042061
:10477800FEF784FB0020FEF781FBB620FEF75AFB0C
:104788000020FEF77BFB0020FEF778FBB720FEF742
:1047980051FB0020FEF772FB0020FEF76FFB3F2065
:1047A800FEF76CFB0020FEF769FB5E20FEF766FB58
:1047B8000020FEF763FB6420FEF760FB0020FEF795
:1047C8005DFB8C20FEF75AFB0020FEF757FBAC2060
:1047D800FEF754FB0020FEF751FBDC20FEF74EFBF2
:1047E8000020FEF74BFB7020FEF748FB0020FEF789
:1047F80045FB9020FEF742FB0020FEF73FFBEB2035
:10480800FEF73CFB0020FEF739FBDC20FEF736FB09
:104818000020FEF733FBB820FEF70CFB0020FEF764
:104828002DFB0020FEF72AFB0020FEF727FB0020C7
:10483800FEF724FB0020FEF721FB0020FEF71EFBFD
:104848000020FEF71BFB0020FEF718FBBA20FEF73E
:10485800F1FA2420FEF712FB0020FEF70FFB0020E0
:10486800FEF70CFB0020FEF709FBC120FEF7E2FA79
:104878002020FEF703FB0020FEF700FB5420FEF784
:10488800FDFA0020FEF7FAFAFF20FEF7F7FA0020FB
:10489800FEF7F4FAC220FEF7CDFA0A20FEF7EEFA88
:1048A8000020FEF7EBFA0420FEF7E8FA0020FEF7F6
:1048B800E5FAC320FEF7BEFA3C20FEF7DFFA002037
:1048C800FEF7DCFA3A20FEF7D9FA0020FEF7D6FA0E
:1048D8003920FEF7D3FA0020FEF7D0FA3720FEF78A
:1048E800CDFA0020FEF7CAFA3C20FEF7C7FA0020EE
:1048F800FEF7C4FA3620FEF7C1FA0020FEF7BEFA2A
:104908003220FEF7BBFA0020FEF7B8FA2F20FEF798
:10491800B5FA0020FEF7B2FA2C20FEF7AFFA002015
:10492800FEF7ACFA2920FEF7A9FA0020FEF7A6FA4E
:104938002620FEF7A3FA0020FEF7A0FA2420FEF7AF
:104948009DFA0020FEF79AFA2420FEF797FA002035
:10495800FEF794FA2320FEF791FA0020FEF78EFA6C
:104968003C20FEF78BFA0020FEF788FA3620FEF787
:1049780085FA0020FEF782FA3220FEF77FFA00203F
:10498800FEF77CFA2F20FEF779FA0020FEF776FA78
:104998002C20FEF773FA0020FEF770FA2920FEF7A4
:1049A8006DFA0020FEF76AFA2620FEF767FA002063
:1049B800FEF764FA2420FEF761FA0020FEF75EFA9B
:1049C8002420FEF75BFA0020FEF758FA2320FEF7B2
:1049D80055FA0020FEF752FAC420FEF72BFA62209F
:1049E800FEF74CFA0020FEF749FA0520FEF746FAD2
:1049F8000020FEF743FA8420FEF740FA0020FEF775
:104A08003DFAF020FEF73AFA0020FEF737FA1820B0
:104A1800FEF734FA0020FEF731FAA420FEF72EFA4A
:104A28000020FEF72BFA1820FEF728FA0020FEF7E0
:104A380025FA5020FEF722FA0020FEF71FFA0C2074
:104A4800FEF71CFA0020FEF719FA1720FEF716FAEF
:104A58000020FEF713FA9520FEF710FA0020FEF763
:104A68000DFAF320FEF70AFA0020FEF707FAE6200F
:104A7800FEF704FA0020FEF701FAC520FEF7DAF97E
:104A88003220FEF7FBF90020FEF7F8F94420FEF784
:104A9800F5F90020FEF7F2F96520FEF7EFF900209E
:104AA800FEF7ECF97620FEF7E9F90020FEF7E6F9C3
:104AB8008820FEF7E3F90020FEF7E0F9C620FEF7AC
:104AC800B9F92020FEF7DAF90020FEF7D7F9172008
:104AD800FEF7D4F90020FEF7D1F90120FEF7CEF950
:104AE8000020FEF7CBF9C720FEF7A4F90020FEF757
:104AF800C5F90020FEF7C2F90020FEF7BFF9002033
:104B0800FEF7BCF9C820FEF795F90020FEF7B6F9C4
:104B18000020FEF7B3F90020FEF7B0F90020FEF7F9
:104B2800ADF9C920FEF786F90020FEF7A7F90020A5
:104B3800FEF7A4F90020FEF7A1F90020FEF79EF980
:104B48000020FEF79BF90020FEF798F90020FEF7F9
:104B580095F90020FEF792F90020FEF78FF9002062
:104B6800FEF78CF90020FEF789F90020FEF786F998
:104B78000020FEF783F90020FEF780F90020FEF7F9
:104B88007DF90020FEF77AF9E020FEF753F91620A8
:104B9800FEF774F90020FEF771F91C20FEF76EF994
:104BA8000020FEF76BF92120FEF768F90020FEF7D8
:104BB80065F93620FEF762F90020FEF75FF9462016
:104BC800FEF75CF90020FEF759F95220FEF756F976
:104BD8000020FEF753F96420FEF750F90020FEF795
:104BE8004DF97A20FEF74AF90020FEF747F98B20A5
:104BF800FEF744F90020FEF741F99920FEF73EF947
:104C08000020FEF73BF9A820FEF738F90020FEF750
:104C180035F9B920FEF732F90020FEF72FF9C42044
:104C2800FEF72CF90020FEF729F9CA20FEF726F92D
:104C38000020FEF723F9D220FEF720F90020FEF726
:104C48001DF9D920FEF71AF90020FEF717F9E02020
:104C5800FEF714F90020FEF711F9F320FEF70EF91C
:104C68000020FEF70BF9E120FEF7E4F81620FEF726
:104C780005F90020FEF702F91C20FEF7FFF80020D6
:104C8800FEF7FCF82220FEF7F9F80020FEF7F6F808
:104C98003620FEF7F3F80020FEF7F0F84520FEF77F
:104CA800EDF80020FEF7EAF85220FEF7E7F80020BA
:104CB800FEF7E4F86420FEF7E1F80020FEF7DEF8DE
:104CC8007A20FEF7DBF80020FEF7D8F88B20FEF7F5
:104CD800D5F80020FEF7D2F89920FEF7CFF800208B
:104CE800FEF7CCF8A820FEF7C9F80020FEF7C6F8B2
:104CF800B920FEF7C3F80020FEF7C0F8C420FEF77D
:104D0800BDF80020FEF7BAF8CA20FEF7B7F8002071
:104D1800FEF7B4F8D220FEF7B1F80020FEF7AEF89F
:104D2800D820FEF7ABF80020FEF7A8F8E020FEF741
:104D3800A5F80020FEF7A2F8F320FEF79FF8002060
:104D4800FEF79CF8E220FEF775F80520FEF796F8C6
:104D58000020FEF793F80B20FEF790F80020FEF7EE
:104D68008DF81B20FEF78AF80020FEF787F834201C
:104D7800FEF784F80020FEF781F84420FEF77EF85D
:104D88000020FEF77BF84F20FEF778F80020FEF7AA
:104D980075F86120FEF772F80020FEF76FF87920A9
:104DA800FEF76CF80020FEF769F88820FEF766F831
:104DB8000020FEF763F89720FEF760F80020FEF762
:104DC8005DF8A620FEF75AF80020FEF757F8B7203E
:104DD800FEF754F80020FEF751F8C220FEF74EF80F
:104DE8000020FEF74BF8C720FEF748F80020FEF732
:104DF80045F8D120FEF742F80020FEF73FF8D6200C
:104E0800FEF73CF80020FEF739F8DD20FEF736F80B
:104E18000020FEF733F8F320FEF730F80020FEF705
:104E28002DF8E320FEF706F80520FEF727F8002006
:104E3800FEF724F80A20FEF721F80020FEF71EF8F6
:104E48001C20FEF71BF80020FEF718F83320FEF7A9
:104E580015F80020FEF712F84420FEF70FF800209E
:104E6800FEF70CF85020FEF709F80020FEF706F8C8
:104E78006220FEF703F80020FEF700F87820FDF71F
:104E8800FDFF0020FDF7FAFF8820FDF7F7FF00205F
:104E9800FDF7F4FF9720FDF7F1FF0020FDF7EEFF87
:104EA800A620FDF7EBFF0020FDF7E8FFB720FDF790
:104EB800E5FF0020FDF7E2FFC220FDF7DFFF00203D
:104EC800FDF7DCFFC720FDF7D9FF0020FDF7D6FF6F
:104ED800D120FDF7D3FF0020FDF7D0FFD520FDF747
:104EE800CDFF0020FDF7CAFFDD20FDF7C7FF00203A
:104EF800FDF7C4FFF320FDF7C1FF0020FDF7BEFF5B
:104F0800E420FDF797FF0120FDF7B8FF0020FDF72B
:104F1800B5FF0120FDF7B2FF0020FDF7AFFF02202B
:104F2800FDF7ACFF0020FDF7A9FF2A20FDF7A6FF3B
:104F38000020FDF7A3FF3C20FDF7A0FF0020FDF7B0
:104F48009DFF4B20FDF79AFF0020FDF797FF5D209E
:104F5800FDF794FF0020FDF791FF7420FDF78EFF09
:104F68000020FDF78BFF8420FDF788FF0020FDF768
:104F780085FF9320FDF782FF0020FDF77FFFA22029
:104F8800FDF77CFF0020FDF779FFB320FDF776FFE2
:104F98000020FDF773FFBE20FDF770FF0020FDF72E
:104FA8006DFFC420FDF76AFF0020FDF767FFCD20E5
:104FB800FDF764FF0020FDF761FFD320FDF75EFFDA
:104FC8000020FDF75BFFDD20FDF758FF0020FDF70F
:104FD80055FFF320FDF752FF0020FDF74FFFE520B6
:104FE800FDF728FF0020FDF749FF0020FDF746FFE9
:104FF8000020FDF743FF0020FDF740FF0220FDF7EA
:105008003DFF0020FDF73AFF2920FDF737FF00207C
:10501800FDF734FF3C20FDF731FF0020FDF72EFFA0
:105028004B20FDF72BFF0020FDF728FF5D20FDF743
:1050380025FF0020FDF722FF7420FDF71FFF002049
:10504800FDF71CFF8420FDF719FF0020FDF716FF70
:105058009320FDF713FF0020FDF710FFA220FDF7B6
:105068000DFF0020FDF70AFFB320FDF707FF002022
:10507800FDF704FFBE20FDF701FF0020FDF7FEFE4F
:10508800C420FDF7FBFE0020FDF7F8FECD20FDF75C
:10509800F5FE0020FDF7F2FED320FDF7EFFE00201D
:1050A800FDF7ECFEDC20FDF7E9FE0020FDF7E6FE4B
:1050B800F320FDF7E3FE0020FDF7E0FEE620FDF714
:1050C800B9FE1120FDF7DAFE0020FDF7D7FE3420E7
:1050D800FDF7D4FE0020FDF7D1FE5620FDF7CEFEE9
:1050E8000020FDF7CBFE7620FDF7C8FE0020FDF777
:1050F800C5FE7720FDF7C2FE0020FDF7BFFE662043
:10510800FDF7BCFE0020FDF7B9FE8820FDF7B6FECE
:105118000020FDF7B3FE9920FDF7B0FE0020FDF753
:10512800ADFEBB20FDF7AAFE0020FDF7A7FE9920E3
:10513800FDF7A4FE0020FDF7A1FE6620FDF79EFE08
:105148000020FDF79BFE5520FDF798FE0020FDF797
:1051580095FE5520FDF792FE0020FDF78FFE4520B5
:10516800FDF78CFE0020FDF789FE4320FDF786FE43
:105178000020FDF783FE4420FDF780FE0020FDF7A8
:105188007DFEE720FDF756FE3220FDF777FE002072
:10519800FDF774FE5520FDF771FE0020FDF76EFE49
:1051A8007620FDF76BFE0020FDF768FE6620FDF710
:1051B80065FE0020FDF762FE6720FDF75FFE002018
:1051C800FDF75CFE6720FDF759FE0020FDF756FE4F
:1051D8008720FDF753FE0020FDF750FE9920FDF7CC
:1051E8004DFE0020FDF74AFEBB20FDF747FE0020DC
:1051F800FDF744FE9920FDF741FE0020FDF73EFE35
:105208007720FDF73BFE0020FDF738FE4420FDF730
:1052180035FE0020FDF732FE5620FDF72FFE002058
:10522800FDF72CFE2320FDF729FE0020FDF726FEC2
:105238003320FDF723FE0020FDF720FE4520FDF773
:105248001DFE0020FDF71AFEE820FDF7F3FD002003
:10525800FDF714FE0020FDF711FE9920FDF70EFE64
:105268000020FDF70BFE8720FDF708FE0020FDF764
:1052780005FE8820FDF702FE0020FDF7FFFD7720E0
:10528800FDF7FCFD0020FDF7F9FD6620FDF7F6FDB2
:105298000020FDF7F3FD8820FDF7F0FD0020FDF765
:1052A800EDFDAA20FDF7EAFD0020FDF7E7FDBB2094
:1052B800FDF7E4FD0020FDF7E1FD9920FDF7DEFD97
:1052C8000020FDF7DBFD6620FDF7D8FD0020FDF787
:1052D800D5FD5520FDF7D2FD0020FDF7CFFD552067
:1052E800FDF7CCFD0020FDF7C9FD4420FDF7C6FD04
:1052F8000020FDF7C3FD4420FDF7C0FD0020FDF7A9
:10530800BDFD5520FDF7BAFD0020FDF7B7FDE920EA
:10531800FDF790FDAA20FDF7B1FD0020FDF7AEFDD9
:105328000020FDF7ABFD0020FDF7A8FD0020FDF7EC
:1053380081FDAA20FDF7A2FDCF20FDF77BFD00200F
:10534800FDF79CFD0020FDF799FD0020FDF796FD77
:105358000020FDF793FD0020FDF790FD0020FDF7EC
:105368008DFD0020FDF78AFD0020FDF787FD002058
:10537800FDF784FD0020FDF781FD0020FDF77EFD8F
:105388000020FDF77BFD0020FDF778FD0020FDF7EC
:1053980075FD0020FDF772FD0020FDF76FFD002070
:1053A800FDF76CFDF020FDF745FD0020FDF766FDDB
:1053B8005020FDF763FD0020FDF760FD0020FDF79C
:1053C8005DFD0020FDF75AFDF320FDF733FD0020B9
:1053D800FDF754FDF920FDF72DFD0620FDF74EFDE4
:1053E8001020FDF74BFD2920FDF748FD0020FDF7B3
:1053F80045FD3A20FDF71EFD5520FDF73FFD112024
:10540800FDF718FD6420FBF713FC2920FDF712FDBA
:105418003520FDF70FFD0020FDF730FD5120FDF789
:1054280009FDFF20FDF72AFD5320FDF703FD2C2081
:10543800FDF724FD5520FDF7FDFC8220FDF71EFD3C
:105448002C20FDF7F7FC02F0A1BC044B9B8845F229
:105458001052934240F0828702E000BF940000207F
:1054680055214FF47040FDF771FDAA214FF201005C
:10547800FDF76CFD52214FF20200FDF767FD082190
:105488004FF20300FDF762FD01214FF20400FDF722
:105498005DFD0D214FF43040FDF758FD0D214BF215
:1054A8000100FDF753FD0D214BF20200FDF74EFD03
:1054B80034214FF43640FDF749FD34214BF20160A9
:1054C800FDF744FD34214BF20260FDF73FFD0D214D
:1054D8004FF43140FDF73AFD0D214BF20110FDF775
:1054E80035FD0D214BF20210FDF730FD34214FF44C
:1054F8003740FDF72BFD34214BF20170FDF726FDF7
:1055080034214BF20270FDF721FD00214FF43240A7
:10551800FDF71CFD00214BF20120FDF717FD0021CE
:105528004BF20220FDF712FD24214FF43840FDF71D
:105538000DFD24214BF60100FDF708FD24214BF653
:105548000200FDF703FD01214FF43F40FDF7FEFC8B
:105558000F214FF43340FDF7F9FC0F214BF20130D6
:10556800FDF7F4FC0F214BF20230FDF7EFFC34217C
:105578004FF43940FDF7EAFC34214BF60110FDF7F2
:10558800E5FC34214BF60210FDF7E0FC08214FF44E
:105598003540FDF7DBFC08214BF20150FDF7D6FC46
:1055A80008214BF20250FDF7D1FC03214FF4424091
:1055B800FDF7CCFC24214FF43A40FDF7C7FC242129
:1055C8004BF60120FDF7C2FC24214BF60220FDF723
:1055D800BDFC00214FF43C40FDF7B8FC78214BF6A8
:1055E8000140FDF7B3FC00214BF60240FDF7AEFC8D
:1055F80000214FF43D40FDF7A9FC78214BF60150FE
:10560800FDF7A4FC00214BF60250FDF79FFC00219A
:105618004FF43E40FDF79AFC64214BF60160FDF71C
:1056280095FC00214FF45140FDF790FC33214DF2D9
:105638000110FDF78BFC00214DF20210FDF786FCEE
:1056480034214DF20310FDF781FC00214DF20410C6
:10565800FDF77CFC3A214DF20510FDF777FC00219F
:105668004DF20610FDF772FC4A214DF20710FDF7C6
:105678006DFC00214DF20810FDF768FC5C214DF22D
:105688000910FDF763FC00214DF20A10FDF75EFCDE
:1056980081214DF20B10FDF759FC00214DF20C1041
:1056A800FDF754FCA6214DF20D10FDF74FFC00212B
:1056B8004DF20E10FDF74AFCE5214DF20F10FDF7F3
:1056C80045FC01214DF21010FDF740FC13214DF26D
:1056D8001110FDF73BFC01214DF21210FDF736FCCD
:1056E80054214DF21310FDF731FC01214DF2141035
:1056F800FDF72CFC82214DF21510FDF727FC012146
:105708004DF21610FDF722FCCA214DF21710FDF7D5
:105718001DFC02214DF21810FDF718FC00214DF276
:105728001910FDF713FC02214DF21A10FDF70EFCBB
:1057380001214DF21B10FDF709FC02214DF21C104E
:10574800FDF704FC34214DF21D10FDF7FFFB02218B
:105758004DF21E10FDF7FAFB67214DF21F10FDF701
:10576800F5FB02214DF22010FDF7F0FB84214DF2EC
:105778002110FDF7EBFB02214DF22210FDF7E6FBAD
:10578800A4214DF22310FDF7E1FB02214DF2241074
:10579800FDF7DCFBB7214DF22510FDF7D7FB022101
:1057A8004DF22610FDF7D2FBCF214DF22710FDF761
:1057B800CDFB02214DF22810FDF7C8FBDE214DF28A
:1057C8002910FDF7C3FB02214DF22A10FDF7BEFB9D
:1057D800F2214DF22B10FDF7B9FB02214DF22C10EE
:1057E800FDF7B4FBFE214DF22D10FDF7AFFB0321B1
:1057F8004DF22E10FDF7AAFB10214DF22F10FDF7E8
:10580800A5FB03214DF23010FDF7A0FB33214DF22B
:105818003110FDF79BFB03214DF23210FDF796FB8B
:105828006D214DF23310FDF791FB00214FF45240EA
:10583800FDF78CFB33214DF20120FDF787FB00219A
:105848004DF20220FDF782FB34214DF20320FDF7D3
:105858007DFB00214DF20420FDF778FB3A214DF243
:105868000520FDF773FB00214DF20620FDF76EFBC6
:105878004A214DF20720FDF769FB00214DF208206F
:10588800FDF764FB5C214DF20920FDF75FFB002169
:105898004DF20A20FDF75AFB81214DF20B20FDF74E
:1058A80055FB00214DF20C20FDF750FBA6214DF2CF
:1058B8000D20FDF74BFB00214DF20E20FDF746FBB6
:1058C800E5214DF20F20FDF741FB01214DF210209B
:1058D800FDF73CFB13214DF21120FDF737FB0121A9
:1058E8004DF21220FDF732FB54214DF21320FDF743
:1058F8002DFB01214DF21420FDF728FB82214DF2EA
:105908001520FDF723FB01214DF21620FDF71EFBA4
:10591800CA214DF21720FDF719FB02214DF218207C
:10592800FDF714FB00214DF21920FDF70FFB0221B2
:105938004DF21A20FDF70AFB01214DF21B20FDF75D
:1059480005FB02214DF21C20FDF700FB34214DF22E
:105958001D20FDF7FBFA02214DF21E20FDF7F6FA95
:1059680067214DF21F20FDF7F1FA02214DF22020A8
:10597800FDF7ECFA84214DF22120FDF7E7FA022128
:105988004DF22220FDF7E2FAA4214DF22320FDF783
:10599800DDFA02214DF22420FDF7D8FAB7214DF2A5
:1059A8002520FDF7D3FA02214DF22620FDF7CEFA85
:1059B800CF214DF22720FDF7C9FA02214DF2282008
:1059C800FDF7C4FADE214DF22920FDF7BFFA0221C6
:1059D8004DF22A20FDF7BAFAF2214DF22B20FDF7FD
:1059E800B5FA02214DF22C20FDF7B0FAFE214DF256
:1059F8002D20FDF7ABFA03214DF22E20FDF7A6FA74
:105A080010214DF22F20FDF7A1FA03214DF230208D
:105A1800FDF79CFA33214DF23120FDF797FA032167
:105A28004DF23220FDF792FA6D214DF23320FDF749
:105A38008DFA00214FF45340FDF788FA33214DF2D7
:105A48000130FDF783FA00214DF20230FDF77EFAAE
:105A580034214DF20330FDF779FA00214DF204307C
:105A6800FDF774FA3A214DF20530FDF76FFA00217F
:105A78004DF20630FDF76AFA4A214DF20730FDF77C
:105A880065FA00214DF20830FDF760FA5C214DF20D
:105A98000930FDF75BFA00214DF20A30FDF756FA9E
:105AA80081214DF20B30FDF751FA00214DF20C30F7
:105AB800FDF74CFAA6214DF20D30FDF747FA00210B
:105AC8004DF20E30FDF742FAE5214DF20F30FDF7A9
